{
  "_format": "hh-sol-artifact-1",
  "contractName": "EToken",
  "sourceName": "contracts/EToken.sol",
  "abi": [
    {
      "inputs": [
        {
          "internalType": "contract IPolicyPool",
          "name": "policyPool_",
          "type": "address"
        }
      ],
      "stateMutability": "nonpayable",
      "type": "constructor"
    },
    {
      "anonymous": false,
      "inputs": [
        {
          "indexed": false,
          "internalType": "address",
          "name": "previousAdmin",
          "type": "address"
        },
        {
          "indexed": false,
          "internalType": "address",
          "name": "newAdmin",
          "type": "address"
        }
      ],
      "name": "AdminChanged",
      "type": "event"
    },
    {
      "anonymous": false,
      "inputs": [
        {
          "indexed": true,
          "internalType": "address",
          "name": "owner",
          "type": "address"
        },
        {
          "indexed": true,
          "internalType": "address",
          "name": "spender",
          "type": "address"
        },
        {
          "indexed": false,
          "internalType": "uint256",
          "name": "value",
          "type": "uint256"
        }
      ],
      "name": "Approval",
      "type": "event"
    },
    {
      "anonymous": false,
      "inputs": [
        {
          "indexed": true,
          "internalType": "address",
          "name": "beacon",
          "type": "address"
        }
      ],
      "name": "BeaconUpgraded",
      "type": "event"
    },
    {
      "anonymous": false,
      "inputs": [
        {
          "indexed": true,
          "internalType": "enum IAccessManager.GovernanceActions",
          "name": "action",
          "type": "uint8"
        },
        {
          "indexed": false,
          "internalType": "address",
          "name": "value",
          "type": "address"
        }
      ],
      "name": "ComponentChanged",
      "type": "event"
    },
    {
      "anonymous": false,
      "inputs": [
        {
          "indexed": true,
          "internalType": "enum IAccessManager.GovernanceActions",
          "name": "action",
          "type": "uint8"
        },
        {
          "indexed": false,
          "internalType": "uint256",
          "name": "value",
          "type": "uint256"
        }
      ],
      "name": "GovernanceAction",
      "type": "event"
    },
    {
      "anonymous": false,
      "inputs": [
        {
          "indexed": false,
          "internalType": "uint8",
          "name": "version",
          "type": "uint8"
        }
      ],
      "name": "Initialized",
      "type": "event"
    },
    {
      "anonymous": false,
      "inputs": [
        {
          "indexed": true,
          "internalType": "address",
          "name": "borrower",
          "type": "address"
        }
      ],
      "name": "InternalBorrowerAdded",
      "type": "event"
    },
    {
      "anonymous": false,
      "inputs": [
        {
          "indexed": true,
          "internalType": "address",
          "name": "borrower",
          "type": "address"
        },
        {
          "indexed": false,
          "internalType": "uint256",
          "name": "defaultedDebt",
          "type": "uint256"
        }
      ],
      "name": "InternalBorrowerRemoved",
      "type": "event"
    },
    {
      "anonymous": false,
      "inputs": [
        {
          "indexed": true,
          "internalType": "address",
          "name": "borrower",
          "type": "address"
        },
        {
          "indexed": false,
          "internalType": "uint256",
          "name": "value",
          "type": "uint256"
        },
        {
          "indexed": false,
          "internalType": "uint256",
          "name": "amountAsked",
          "type": "uint256"
        }
      ],
      "name": "InternalLoan",
      "type": "event"
    },
    {
      "anonymous": false,
      "inputs": [
        {
          "indexed": true,
          "internalType": "address",
          "name": "borrower",
          "type": "address"
        },
        {
          "indexed": false,
          "internalType": "uint256",
          "name": "value",
          "type": "uint256"
        }
      ],
      "name": "InternalLoanRepaid",
      "type": "event"
    },
    {
      "anonymous": false,
      "inputs": [
        {
          "indexed": false,
          "internalType": "address",
          "name": "account",
          "type": "address"
        }
      ],
      "name": "Paused",
      "type": "event"
    },
    {
      "anonymous": false,
      "inputs": [
        {
          "indexed": false,
          "internalType": "uint256",
          "name": "interestRate",
          "type": "uint256"
        },
        {
          "indexed": false,
          "internalType": "uint256",
          "name": "value",
          "type": "uint256"
        }
      ],
      "name": "SCRLocked",
      "type": "event"
    },
    {
      "anonymous": false,
      "inputs": [
        {
          "indexed": false,
          "internalType": "uint256",
          "name": "interestRate",
          "type": "uint256"
        },
        {
          "indexed": false,
          "internalType": "uint256",
          "name": "value",
          "type": "uint256"
        }
      ],
      "name": "SCRUnlocked",
      "type": "event"
    },
    {
      "anonymous": false,
      "inputs": [
        {
          "indexed": true,
          "internalType": "address",
          "name": "from",
          "type": "address"
        },
        {
          "indexed": true,
          "internalType": "address",
          "name": "to",
          "type": "address"
        },
        {
          "indexed": false,
          "internalType": "uint256",
          "name": "value",
          "type": "uint256"
        }
      ],
      "name": "Transfer",
      "type": "event"
    },
    {
      "anonymous": false,
      "inputs": [
        {
          "indexed": false,
          "internalType": "address",
          "name": "account",
          "type": "address"
        }
      ],
      "name": "Unpaused",
      "type": "event"
    },
    {
      "anonymous": false,
      "inputs": [
        {
          "indexed": true,
          "internalType": "address",
          "name": "implementation",
          "type": "address"
        }
      ],
      "name": "Upgraded",
      "type": "event"
    },
    {
      "inputs": [],
      "name": "GUARDIAN_ROLE",
      "outputs": [
        {
          "internalType": "bytes32",
          "name": "",
          "type": "bytes32"
        }
      ],
      "stateMutability": "view",
      "type": "function"
    },
    {
      "inputs": [],
      "name": "LEVEL1_ROLE",
      "outputs": [
        {
          "internalType": "bytes32",
          "name": "",
          "type": "bytes32"
        }
      ],
      "stateMutability": "view",
      "type": "function"
    },
    {
      "inputs": [],
      "name": "LEVEL2_ROLE",
      "outputs": [
        {
          "internalType": "bytes32",
          "name": "",
          "type": "bytes32"
        }
      ],
      "stateMutability": "view",
      "type": "function"
    },
    {
      "inputs": [],
      "name": "LEVEL3_ROLE",
      "outputs": [
        {
          "internalType": "bytes32",
          "name": "",
          "type": "bytes32"
        }
      ],
      "stateMutability": "view",
      "type": "function"
    },
    {
      "inputs": [],
      "name": "TWEAK_EXPIRATION",
      "outputs": [
        {
          "internalType": "uint40",
          "name": "",
          "type": "uint40"
        }
      ],
      "stateMutability": "view",
      "type": "function"
    },
    {
      "inputs": [
        {
          "internalType": "address",
          "name": "borrower",
          "type": "address"
        }
      ],
      "name": "addBorrower",
      "outputs": [],
      "stateMutability": "nonpayable",
      "type": "function"
    },
    {
      "inputs": [
        {
          "internalType": "address",
          "name": "owner",
          "type": "address"
        },
        {
          "internalType": "address",
          "name": "spender",
          "type": "address"
        }
      ],
      "name": "allowance",
      "outputs": [
        {
          "internalType": "uint256",
          "name": "",
          "type": "uint256"
        }
      ],
      "stateMutability": "view",
      "type": "function"
    },
    {
      "inputs": [
        {
          "internalType": "address",
          "name": "spender",
          "type": "address"
        },
        {
          "internalType": "uint256",
          "name": "amount",
          "type": "uint256"
        }
      ],
      "name": "approve",
      "outputs": [
        {
          "internalType": "bool",
          "name": "",
          "type": "bool"
        }
      ],
      "stateMutability": "nonpayable",
      "type": "function"
    },
    {
      "inputs": [],
      "name": "assetManager",
      "outputs": [
        {
          "internalType": "contract IAssetManager",
          "name": "",
          "type": "address"
        }
      ],
      "stateMutability": "view",
      "type": "function"
    },
    {
      "inputs": [
        {
          "internalType": "address",
          "name": "account",
          "type": "address"
        }
      ],
      "name": "balanceOf",
      "outputs": [
        {
          "internalType": "uint256",
          "name": "",
          "type": "uint256"
        }
      ],
      "stateMutability": "view",
      "type": "function"
    },
    {
      "inputs": [],
      "name": "checkpoint",
      "outputs": [],
      "stateMutability": "nonpayable",
      "type": "function"
    },
    {
      "inputs": [],
      "name": "currency",
      "outputs": [
        {
          "internalType": "contract IERC20Metadata",
          "name": "",
          "type": "address"
        }
      ],
      "stateMutability": "view",
      "type": "function"
    },
    {
      "inputs": [],
      "name": "decimals",
      "outputs": [
        {
          "internalType": "uint8",
          "name": "",
          "type": "uint8"
        }
      ],
      "stateMutability": "view",
      "type": "function"
    },
    {
      "inputs": [
        {
          "internalType": "address",
          "name": "spender",
          "type": "address"
        },
        {
          "internalType": "uint256",
          "name": "subtractedValue",
          "type": "uint256"
        }
      ],
      "name": "decreaseAllowance",
      "outputs": [
        {
          "internalType": "bool",
          "name": "",
          "type": "bool"
        }
      ],
      "stateMutability": "nonpayable",
      "type": "function"
    },
    {
      "inputs": [
        {
          "internalType": "address",
          "name": "provider",
          "type": "address"
        },
        {
          "internalType": "uint256",
          "name": "amount",
          "type": "uint256"
        }
      ],
      "name": "deposit",
      "outputs": [
        {
          "internalType": "uint256",
          "name": "",
          "type": "uint256"
        }
      ],
      "stateMutability": "nonpayable",
      "type": "function"
    },
    {
      "inputs": [
        {
          "internalType": "bytes",
          "name": "functionCall",
          "type": "bytes"
        }
      ],
      "name": "forwardToAssetManager",
      "outputs": [
        {
          "internalType": "bytes",
          "name": "",
          "type": "bytes"
        }
      ],
      "stateMutability": "nonpayable",
      "type": "function"
    },
    {
      "inputs": [],
      "name": "fundsAvailable",
      "outputs": [
        {
          "internalType": "uint256",
          "name": "",
          "type": "uint256"
        }
      ],
      "stateMutability": "view",
      "type": "function"
    },
    {
      "inputs": [],
      "name": "fundsAvailableToLock",
      "outputs": [
        {
          "internalType": "uint256",
          "name": "",
          "type": "uint256"
        }
      ],
      "stateMutability": "view",
      "type": "function"
    },
    {
      "inputs": [
        {
          "internalType": "bool",
          "name": "updated",
          "type": "bool"
        }
      ],
      "name": "getCurrentScale",
      "outputs": [
        {
          "internalType": "uint256",
          "name": "",
          "type": "uint256"
        }
      ],
      "stateMutability": "view",
      "type": "function"
    },
    {
      "inputs": [
        {
          "internalType": "address",
          "name": "borrower",
          "type": "address"
        }
      ],
      "name": "getLoan",
      "outputs": [
        {
          "internalType": "uint256",
          "name": "",
          "type": "uint256"
        }
      ],
      "stateMutability": "view",
      "type": "function"
    },
    {
      "inputs": [
        {
          "internalType": "address",
          "name": "spender",
          "type": "address"
        },
        {
          "internalType": "uint256",
          "name": "addedValue",
          "type": "uint256"
        }
      ],
      "name": "increaseAllowance",
      "outputs": [
        {
          "internalType": "bool",
          "name": "",
          "type": "bool"
        }
      ],
      "stateMutability": "nonpayable",
      "type": "function"
    },
    {
      "inputs": [
        {
          "internalType": "string",
          "name": "name_",
          "type": "string"
        },
        {
          "internalType": "string",
          "name": "symbol_",
          "type": "string"
        },
        {
          "internalType": "uint256",
          "name": "maxUtilizationRate_",
          "type": "uint256"
        },
        {
          "internalType": "uint256",
          "name": "internalLoanInterestRate_",
          "type": "uint256"
        }
      ],
      "name": "initialize",
      "outputs": [],
      "stateMutability": "nonpayable",
      "type": "function"
    },
    {
      "inputs": [
        {
          "internalType": "uint256",
          "name": "amount",
          "type": "uint256"
        },
        {
          "internalType": "address",
          "name": "receiver",
          "type": "address"
        },
        {
          "internalType": "bool",
          "name": "fromAvailable",
          "type": "bool"
        }
      ],
      "name": "internalLoan",
      "outputs": [
        {
          "internalType": "uint256",
          "name": "",
          "type": "uint256"
        }
      ],
      "stateMutability": "nonpayable",
      "type": "function"
    },
    {
      "inputs": [],
      "name": "internalLoanInterestRate",
      "outputs": [
        {
          "internalType": "uint256",
          "name": "",
          "type": "uint256"
        }
      ],
      "stateMutability": "view",
      "type": "function"
    },
    {
      "inputs": [],
      "name": "lastTweak",
      "outputs": [
        {
          "internalType": "uint40",
          "name": "",
          "type": "uint40"
        },
        {
          "internalType": "uint56",
          "name": "",
          "type": "uint56"
        }
      ],
      "stateMutability": "view",
      "type": "function"
    },
    {
      "inputs": [],
      "name": "liquidityRequirement",
      "outputs": [
        {
          "internalType": "uint256",
          "name": "",
          "type": "uint256"
        }
      ],
      "stateMutability": "view",
      "type": "function"
    },
    {
      "inputs": [
        {
          "internalType": "uint256",
          "name": "scrAmount",
          "type": "uint256"
        },
        {
          "internalType": "uint256",
          "name": "policyInterestRate",
          "type": "uint256"
        }
      ],
      "name": "lockScr",
      "outputs": [],
      "stateMutability": "nonpayable",
      "type": "function"
    },
    {
      "inputs": [],
      "name": "maxUtilizationRate",
      "outputs": [
        {
          "internalType": "uint256",
          "name": "",
          "type": "uint256"
        }
      ],
      "stateMutability": "view",
      "type": "function"
    },
    {
      "inputs": [],
      "name": "minUtilizationRate",
      "outputs": [
        {
          "internalType": "uint256",
          "name": "",
          "type": "uint256"
        }
      ],
      "stateMutability": "view",
      "type": "function"
    },
    {
      "inputs": [],
      "name": "name",
      "outputs": [
        {
          "internalType": "string",
          "name": "",
          "type": "string"
        }
      ],
      "stateMutability": "view",
      "type": "function"
    },
    {
      "inputs": [],
      "name": "pause",
      "outputs": [],
      "stateMutability": "nonpayable",
      "type": "function"
    },
    {
      "inputs": [],
      "name": "paused",
      "outputs": [
        {
          "internalType": "bool",
          "name": "",
          "type": "bool"
        }
      ],
      "stateMutability": "view",
      "type": "function"
    },
    {
      "inputs": [],
      "name": "policyPool",
      "outputs": [
        {
          "internalType": "contract IPolicyPool",
          "name": "",
          "type": "address"
        }
      ],
      "stateMutability": "view",
      "type": "function"
    },
    {
      "inputs": [],
      "name": "proxiableUUID",
      "outputs": [
        {
          "internalType": "bytes32",
          "name": "",
          "type": "bytes32"
        }
      ],
      "stateMutability": "view",
      "type": "function"
    },
    {
      "inputs": [],
      "name": "rebalance",
      "outputs": [],
      "stateMutability": "nonpayable",
      "type": "function"
    },
    {
      "inputs": [],
      "name": "recordEarnings",
      "outputs": [],
      "stateMutability": "nonpayable",
      "type": "function"
    },
    {
      "inputs": [
        {
          "internalType": "address",
          "name": "borrower",
          "type": "address"
        }
      ],
      "name": "removeBorrower",
      "outputs": [],
      "stateMutability": "nonpayable",
      "type": "function"
    },
    {
      "inputs": [
        {
          "internalType": "uint256",
          "name": "amount",
          "type": "uint256"
        },
        {
          "internalType": "address",
          "name": "onBehalfOf",
          "type": "address"
        }
      ],
      "name": "repayLoan",
      "outputs": [],
      "stateMutability": "nonpayable",
      "type": "function"
    },
    {
      "inputs": [],
      "name": "scr",
      "outputs": [
        {
          "internalType": "uint256",
          "name": "",
          "type": "uint256"
        }
      ],
      "stateMutability": "view",
      "type": "function"
    },
    {
      "inputs": [],
      "name": "scrInterestRate",
      "outputs": [
        {
          "internalType": "uint256",
          "name": "",
          "type": "uint256"
        }
      ],
      "stateMutability": "view",
      "type": "function"
    },
    {
      "inputs": [
        {
          "internalType": "contract IAssetManager",
          "name": "newAM",
          "type": "address"
        },
        {
          "internalType": "bool",
          "name": "force",
          "type": "bool"
        }
      ],
      "name": "setAssetManager",
      "outputs": [],
      "stateMutability": "nonpayable",
      "type": "function"
    },
    {
      "inputs": [
        {
          "internalType": "enum IEToken.Parameter",
          "name": "param",
          "type": "uint8"
        },
        {
          "internalType": "uint256",
          "name": "newValue",
          "type": "uint256"
        }
      ],
      "name": "setParam",
      "outputs": [],
      "stateMutability": "nonpayable",
      "type": "function"
    },
    {
      "inputs": [
        {
          "internalType": "contract ILPWhitelist",
          "name": "lpWhitelist_",
          "type": "address"
        }
      ],
      "name": "setWhitelist",
      "outputs": [],
      "stateMutability": "nonpayable",
      "type": "function"
    },
    {
      "inputs": [
        {
          "internalType": "bytes4",
          "name": "interfaceId",
          "type": "bytes4"
        }
      ],
      "name": "supportsInterface",
      "outputs": [
        {
          "internalType": "bool",
          "name": "",
          "type": "bool"
        }
      ],
      "stateMutability": "view",
      "type": "function"
    },
    {
      "inputs": [],
      "name": "symbol",
      "outputs": [
        {
          "internalType": "string",
          "name": "",
          "type": "string"
        }
      ],
      "stateMutability": "view",
      "type": "function"
    },
    {
      "inputs": [],
      "name": "tokenInterestRate",
      "outputs": [
        {
          "internalType": "uint256",
          "name": "",
          "type": "uint256"
        }
      ],
      "stateMutability": "view",
      "type": "function"
    },
    {
      "inputs": [],
      "name": "totalSupply",
      "outputs": [
        {
          "internalType": "uint256",
          "name": "",
          "type": "uint256"
        }
      ],
      "stateMutability": "view",
      "type": "function"
    },
    {
      "inputs": [],
      "name": "totalWithdrawable",
      "outputs": [
        {
          "internalType": "uint256",
          "name": "",
          "type": "uint256"
        }
      ],
      "stateMutability": "view",
      "type": "function"
    },
    {
      "inputs": [
        {
          "internalType": "address",
          "name": "recipient",
          "type": "address"
        },
        {
          "internalType": "uint256",
          "name": "amount",
          "type": "uint256"
        }
      ],
      "name": "transfer",
      "outputs": [
        {
          "internalType": "bool",
          "name": "",
          "type": "bool"
        }
      ],
      "stateMutability": "nonpayable",
      "type": "function"
    },
    {
      "inputs": [
        {
          "internalType": "address",
          "name": "sender",
          "type": "address"
        },
        {
          "internalType": "address",
          "name": "recipient",
          "type": "address"
        },
        {
          "internalType": "uint256",
          "name": "amount",
          "type": "uint256"
        }
      ],
      "name": "transferFrom",
      "outputs": [
        {
          "internalType": "bool",
          "name": "",
          "type": "bool"
        }
      ],
      "stateMutability": "nonpayable",
      "type": "function"
    },
    {
      "inputs": [
        {
          "internalType": "uint256",
          "name": "scrAmount",
          "type": "uint256"
        },
        {
          "internalType": "uint256",
          "name": "policyInterestRate",
          "type": "uint256"
        },
        {
          "internalType": "int256",
          "name": "adjustment",
          "type": "int256"
        }
      ],
      "name": "unlockScr",
      "outputs": [],
      "stateMutability": "nonpayable",
      "type": "function"
    },
    {
      "inputs": [],
      "name": "unpause",
      "outputs": [],
      "stateMutability": "nonpayable",
      "type": "function"
    },
    {
      "inputs": [
        {
          "internalType": "address",
          "name": "newImplementation",
          "type": "address"
        }
      ],
      "name": "upgradeTo",
      "outputs": [],
      "stateMutability": "nonpayable",
      "type": "function"
    },
    {
      "inputs": [
        {
          "internalType": "address",
          "name": "newImplementation",
          "type": "address"
        },
        {
          "internalType": "bytes",
          "name": "data",
          "type": "bytes"
        }
      ],
      "name": "upgradeToAndCall",
      "outputs": [],
      "stateMutability": "payable",
      "type": "function"
    },
    {
      "inputs": [],
      "name": "utilizationRate",
      "outputs": [
        {
          "internalType": "uint256",
          "name": "",
          "type": "uint256"
        }
      ],
      "stateMutability": "view",
      "type": "function"
    },
    {
      "inputs": [],
      "name": "whitelist",
      "outputs": [
        {
          "internalType": "contract ILPWhitelist",
          "name": "",
          "type": "address"
        }
      ],
      "stateMutability": "view",
      "type": "function"
    },
    {
      "inputs": [
        {
          "internalType": "address",
          "name": "provider",
          "type": "address"
        },
        {
          "internalType": "uint256",
          "name": "amount",
          "type": "uint256"
        }
      ],
      "name": "withdraw",
      "outputs": [
        {
          "internalType": "uint256",
          "name": "",
          "type": "uint256"
        }
      ],
      "stateMutability": "nonpayable",
      "type": "function"
    }
  ],
  "bytecode": "0x60e0604052306080523480156200001557600080fd5b50604051620062fb380380620062fb8339810160408190526200003891620002a9565b80806001600160a01b038116620000bc5760405162461bcd60e51b815260206004820152603660248201527f506f6c696379506f6f6c436f6d706f6e656e743a20706f6c696379506f6f6c2060448201527f63616e6e6f74206265207a65726f20616464726573730000000000000000000060648201526084015b60405180910390fd5b620000c6620001d1565b806001600160a01b031660a0816001600160a01b031681525050506002816001600160a01b031663e5a6b10f6040518163ffffffff1660e01b8152600401602060405180830381865afa15801562000122573d6000803e3d6000fd5b505050506040513d601f19601f82011682018060405250810190620001489190620002a9565b6001600160a01b031663313ce5676040518163ffffffff1660e01b8152600401602060405180830381865afa15801562000186573d6000803e3d6000fd5b505050506040513d601f19601f82011682018060405250810190620001ac9190620002d0565b620001b891906200030b565b620001c590600a6200043b565b60c052506200044c9050565b600054610100900460ff16156200023b5760405162461bcd60e51b815260206004820152602760248201527f496e697469616c697a61626c653a20636f6e747261637420697320696e697469604482015266616c697a696e6760c81b6064820152608401620000b3565b60005460ff90811610156200028e576000805460ff191660ff9081179091556040519081527f7f26b83ff96e1f2b6a682f133852f6798a09c465da95921460cefb38474024989060200160405180910390a15b565b6001600160a01b0381168114620002a657600080fd5b50565b600060208284031215620002bc57600080fd5b8151620002c98162000290565b9392505050565b600060208284031215620002e357600080fd5b815160ff81168114620002c957600080fd5b634e487b7160e01b600052601160045260246000fd5b600060ff8316806200032d57634e487b7160e01b600052601260045260246000fd5b8060ff84160491505092915050565b600181815b808511156200037d578160001904821115620003615762000361620002f5565b808516156200036f57918102915b93841c939080029062000341565b509250929050565b600082620003965750600162000435565b81620003a55750600062000435565b8160018114620003be5760028114620003c957620003e9565b600191505062000435565b60ff841115620003dd57620003dd620002f5565b50506001821b62000435565b5060208310610133831016604e8410600b84101617156200040e575081810a62000435565b6200041a83836200033c565b8060001904821115620004315762000431620002f5565b0290505b92915050565b6000620002c960ff84168362000385565b60805160a05160c051615df3620005086000396000613a4e0152600081816105ca01528181610bff01528181610d3a01528181610f6f01528181611064015281816117bf01528181611ba201528181611cac01528181611da3015281816123ac0152818161287901528181612c5101528181612d4201528181612de1015281816132f1015281816141310152614687015260008181610e5001528181610e990152818161129d015281816112dd01526115230152615df36000f3fe6080604052600436106103765760003560e01c806370a08231116101d1578063a457c2d711610102578063d80359f1116100a0578063e5a6b10f1161006f578063e5a6b10f146109f4578063ee01a18314610a09578063f3fef3a314610a1e578063f67b2bad14610a3e57600080fd5b8063d80359f11461097f578063dd62ed3e1461099f578063dfcb48bd146109bf578063e3a8e29c146109d457600080fd5b8063ba4e8df5116100dc578063ba4e8df514610920578063c1cca2b314610935578063c2c4c5c114610955578063cda4bcc21461096a57600080fd5b8063a457c2d7146108c0578063a9059cbb146108e0578063b1081ccf1461090057600080fd5b8063854cff2f1161016f57806394217ad11161014957806394217ad11461085157806395d89b41146108705780639d90724d14610885578063a08f2203146108ab57600080fd5b8063854cff2f146107eb578063918344d31461080b57806393e59dc11461082b57600080fd5b80637d7c2a1c116101ab5780637d7c2a1c146107745780637ed5acfa14610789578063837c83a3146107b65780638456cb59146107d657600080fd5b806370a082311461071457806376c7fc551461073457806379d989fb1461075457600080fd5b8063468a8c9f116102ab57806351dcfd31116102495780635c975abb116102235780635c975abb146106a85780636c321c8a146106c05780636c6f4542146106d55780636fe0e395146106f457600080fd5b806351dcfd311461063f57806352d1902d1461065f5780635b494dd51461067457600080fd5b80634d15eb03116102855780634d15eb03146105bb5780634eb978a4146106025780634f1ef286146106175780634fe0bd1e1461062a57600080fd5b8063468a8c9f1461053f57806347e7ef24146105795780634a47a3e01461059957600080fd5b806323b872dd1161031857806333481fc9116102f257806333481fc9146104c85780633659cfe6146104e8578063395093511461050a5780633f4ba83a1461052a57600080fd5b806323b872dd1461045f57806324ea54f41461047f578063313ce567146104a157600080fd5b8063095ea7b311610354578063095ea7b3146103f5578063159ec2df1461041557806318160ddd1461042a5780631e9c46581461043f57600080fd5b806301ffc9a71461037b5780630600a865146103b057806306fdde03146103d3575b600080fd5b34801561038757600080fd5b5061039b61039636600461536b565b610a60565b60405190151581526020015b60405180910390f35b3480156103bc57600080fd5b506103c5610ac1565b6040519081526020016103a7565b3480156103df57600080fd5b506103e8610b11565b6040516103a791906153e5565b34801561040157600080fd5b5061039b61041036600461540d565b610ba4565b34801561042157600080fd5b506103c5610bba565b34801561043657600080fd5b506103c5610bd1565b34801561044b57600080fd5b506103e861045a3660046154db565b610bec565b34801561046b57600080fd5b5061039b61047a36600461550f565b610d10565b34801561048b57600080fd5b506103c5600080516020615d9e83398151915281565b3480156104ad57600080fd5b506104b6610d36565b60405160ff90911681526020016103a7565b3480156104d457600080fd5b506103c56104e3366004615550565b610e1b565b3480156104f457600080fd5b50610508610503366004615550565b610e46565b005b34801561051657600080fd5b5061039b61052536600461540d565b610f2e565b34801561053657600080fd5b50610508610f4f565b34801561054b57600080fd5b5060c9546040805164ffffffffff83168152600160281b90920466ffffffffffffff166020830152016103a7565b34801561058557600080fd5b506103c561059436600461540d565b61105f565b3480156105a557600080fd5b506103c5600080516020615d7e83398151915281565b3480156105c757600080fd5b507f00000000000000000000000000000000000000000000000000000000000000005b6040516001600160a01b0390911681526020016103a7565b34801561060e57600080fd5b5061050861122a565b61050861062536600461556d565b611293565b34801561063657600080fd5b506103c561135f565b34801561064b57600080fd5b506103c561065a3660046155ca565b611400565b34801561066b57600080fd5b506103c5611516565b34801561068057600080fd5b506103c57f5ec196419322369c6bac572d883f4d990ae5ec82f7d93cdf89b85dbb05b63c2781565b3480156106b457600080fd5b5060975460ff1661039b565b3480156106cc57600080fd5b506103c56115c9565b3480156106e157600080fd5b50610132546001600160801b03166103c5565b34801561070057600080fd5b5061050861070f36600461560c565b611643565b34801561072057600080fd5b506103c561072f366004615550565b611764565b34801561074057600080fd5b5061050861074f366004615550565b6117bc565b34801561076057600080fd5b506103c561076f36600461567f565b611893565b34801561078057600080fd5b506105086118bd565b34801561079557600080fd5b506107a06201518081565b60405164ffffffffff90911681526020016103a7565b3480156107c257600080fd5b506105086107d136600461569c565b611905565b3480156107e257600080fd5b50610508611b91565b3480156107f757600080fd5b50610508610806366004615550565b611c8c565b34801561081757600080fd5b506105086108263660046156be565b611ec9565b34801561083757600080fd5b5061013454600160401b90046001600160a01b03166105ea565b34801561085d57600080fd5b50610135546001600160a01b03166105ea565b34801561087c57600080fd5b506103e861202b565b34801561089157600080fd5b5061013254600160801b90046001600160401b03166103c5565b3480156108b757600080fd5b506103c561203b565b3480156108cc57600080fd5b5061039b6108db36600461540d565b6120df565b3480156108ec57600080fd5b5061039b6108fb36600461540d565b61217c565b34801561090c57600080fd5b5061050861091b3660046156ee565b612189565b34801561092c57600080fd5b506103c5612366565b34801561094157600080fd5b5061050861095036600461571a565b61237a565b34801561096157600080fd5b50610508612824565b34801561097657600080fd5b506103c561283e565b34801561098b57600080fd5b5061050861099a36600461573c565b612859565b3480156109ab57600080fd5b506103c56109ba36600461576a565b612c06565b3480156109cb57600080fd5b506103c5612c32565b3480156109e057600080fd5b506105086109ef366004615550565b612c4e565b348015610a0057600080fd5b506105ea612d3e565b348015610a1557600080fd5b506103c5612dc2565b348015610a2a57600080fd5b506103c5610a3936600461540d565b612ddc565b348015610a4a57600080fd5b506103c5600080516020615d3783398151915281565b6000610a6b82612e6c565b80610a8657506001600160e01b031982166336372b0760e01b145b80610aa157506001600160e01b0319821663a219a02560e01b145b80610abb57506001600160e01b03198216629d19af60e21b145b92915050565b600080610ae2610acf612366565b610132546001600160801b031690612ea2565b90506000610aee610bd1565b9050818110610b0857610b0182826157ae565b9250505090565b60009250505090565b606061012f8054610b21906157c1565b80601f0160208091040260200160405190810160405280929190818152602001828054610b4d906157c1565b8015610b9a5780601f10610b6f57610100808354040283529160200191610b9a565b820191906000526020600020905b815481529060010190602001808311610b7d57829003601f168201915b5050505050905090565b6000610bb1338484612eda565b50600192915050565b61013254600160c01b90046001600160401b031690565b6000610be7610bde610bba565b61013190613003565b905090565b6060600080516020615d7e8339815191527f00000000000000000000000000000000000000000000000000000000000000006001600160a01b03166371907f176040518163ffffffff1660e01b8152600401602060405180830381865afa158015610c5b573d6000803e3d6000fd5b505050506040513d601f19601f82011682018060405250810190610c7f91906157f5565b6001600160a01b0316635ff57d2030833360016040518563ffffffff1660e01b8152600401610cb19493929190615812565b60006040518083038186803b158015610cc957600080fd5b505afa158015610cdd573d6000803e3d6000fd5b50505050610d0783610cf8610135546001600160a01b031690565b6001600160a01b031690613030565b91505b50919050565b600033610d1e858285613055565b610d298585856130cf565b60019150505b9392505050565b60007f00000000000000000000000000000000000000000000000000000000000000006001600160a01b031663e5a6b10f6040518163ffffffff1660e01b8152600401602060405180830381865afa158015610d96573d6000803e3d6000fd5b505050506040513d601f19601f82011682018060405250810190610dba91906157f5565b6001600160a01b031663313ce5676040518163ffffffff1660e01b8152600401602060405180830381865afa158015610df7573d6000803e3d6000fd5b505050506040513d601f19601f82011682018060405250810190610be7919061583c565b6001600160a01b038116600090815261013360205260408120610d07610e3f61283e565b8290613003565b6001600160a01b037f0000000000000000000000000000000000000000000000000000000000000000163003610e975760405162461bcd60e51b8152600401610e8e9061585f565b60405180910390fd5b7f00000000000000000000000000000000000000000000000000000000000000006001600160a01b0316610ee0600080516020615d17833981519152546001600160a01b031690565b6001600160a01b031614610f065760405162461bcd60e51b8152600401610e8e906158ab565b610f0f816132d1565b60408051600080825260208201909252610f2b918391906133de565b50565b6000610bb1338484610f403388612c06565b610f4a91906158f7565b612eda565b600080516020615d9e833981519152600080516020615d378339815191527f00000000000000000000000000000000000000000000000000000000000000006001600160a01b03166371907f176040518163ffffffff1660e01b8152600401602060405180830381865afa158015610fcb573d6000803e3d6000fd5b505050506040513d601f19601f82011682018060405250810190610fef91906157f5565b6001600160a01b0316632b1cff1f3084843360016040518663ffffffff1660e01b815260040161102395949392919061590a565b60006040518083038186803b15801561103b57600080fd5b505afa15801561104f573d6000803e3d6000fd5b5050505061105b613549565b5050565b6000337f00000000000000000000000000000000000000000000000000000000000000006001600160a01b0316146110a95760405162461bcd60e51b8152600401610e8e9061593d565b61013454600160401b90046001600160a01b031615806111485750610134546040516337ee20dd60e01b81523060048201526001600160a01b03858116602483015260448201859052600160401b909204909116906337ee20dd90606401602060405180830381865afa158015611124573d6000803e3d6000fd5b505050506040513d601f19601f82011682018060405250810190611148919061597e565b61119f5760405162461bcd60e51b815260206004820152602260248201527f4c69717569646974792050726f7669646572206e6f742077686974656c697374604482015261195960f21b6064820152608401610e8e565b6111a9838361359b565b6111b16136f1565b6111b9612dc2565b6111c16115c9565b10156112215760405162461bcd60e51b815260206004820152602960248201527f4465706f7369742072656a6563746564202d205574696c697a6174696f6e205260448201526830ba32901e1036b4b760b91b6064820152608401610e8e565b610d2f83611764565b6112326137ce565b6040805160048152602481019091526020810180516001600160e01b03166313ae5e2960e21b17905260009061127590610cf8610135546001600160a01b031690565b9050610f2b8180602001905181019061128e919061599b565b613814565b6001600160a01b037f00000000000000000000000000000000000000000000000000000000000000001630036112db5760405162461bcd60e51b8152600401610e8e9061585f565b7f00000000000000000000000000000000000000000000000000000000000000006001600160a01b0316611324600080516020615d17833981519152546001600160a01b031690565b6001600160a01b03161461134a5760405162461bcd60e51b8152600401610e8e906158ab565b611353826132d1565b61105b828260016133de565b600080306001600160a01b03166318160ddd6040518163ffffffff1660e01b8152600401602060405180830381865afa1580156113a0573d6000803e3d6000fd5b505050506040513d601f19601f820116820180604052508101906113c4919061599b565b610132549091506001600160801b03168111156113f857610132546113f2906001600160801b0316826157ae565b91505090565b600091505090565b33600090815261013360205260408120546001600160701b031681036114385760405162461bcd60e51b8152600401610e8e906159b4565b6114406137ce565b83611476611462828561145a57611455610bd1565b61381d565b61145561135f565b61145561146d610bba565b61013190613833565b945084600003611487579050610d2f565b336000908152610133602052604090206114ab866114a361283e565b8391906138a3565b506114bd6114b8876159eb565b613923565b6114c78587613941565b604080518781526020810184905233917f98697a4799dbd9db66c7168304c43cba77a27a50d2785625e09072e0d91fdd53910160405180910390a261150c86836157ae565b9695505050505050565b6000306001600160a01b037f000000000000000000000000000000000000000000000000000000000000000016146115b65760405162461bcd60e51b815260206004820152603860248201527f555550535570677261646561626c653a206d757374206e6f742062652063616c60448201527f6c6564207468726f7567682064656c656761746563616c6c00000000000000006064820152608401610e8e565b50600080516020615d1783398151915290565b6000610be7306001600160a01b03166318160ddd6040518163ffffffff1660e01b8152600401602060405180830381865afa15801561160c573d6000803e3d6000fd5b505050506040513d601f19601f82011682018060405250810190611630919061599b565b610132546001600160801b031690613a9e565b600054610100900460ff16158080156116635750600054600160ff909116105b8061167d5750303b15801561167d575060005460ff166001145b6116e05760405162461bcd60e51b815260206004820152602e60248201527f496e697469616c697a61626c653a20636f6e747261637420697320616c72656160448201526d191e481a5b9a5d1a585b1a5e995960921b6064820152608401610e8e565b6000805460ff191660011790558015611703576000805461ff0019166101001790555b61170b613ad5565b61171785858585613b04565b801561175d576000805461ff0019169055604051600181527f7f26b83ff96e1f2b6a682f133852f6798a09c465da95921460cefb38474024989060200160405180910390a15b5050505050565b6001600160a01b038116600090815261012d602052604081205480820361178e5750600092915050565b610d076117b761179d83613ce1565b6117b16117a8610bba565b61013190613cf7565b90613da0565b613de3565b337f00000000000000000000000000000000000000000000000000000000000000006001600160a01b0316146118045760405162461bcd60e51b8152600401610e8e9061593d565b6001600160a01b03811661182a5760405162461bcd60e51b8152600401610e8e90615a07565b600061183582610e1b565b6001600160a01b038316600081815261013360205260408082209190915551919250907fe2ebfbed0df9004eae018a4ae91b24baa0cd1d83f495fab6dde3a1493f9dc6c6906118879084815260200190565b60405180910390a25050565b600081156118a657610abb6117a8610bba565b5050610131546001600160701b031690565b919050565b6118c56137ce565b6040805160048152602481019091526020810180516001600160e01b0316631f5f0a8760e21b179052610f2b90610cf8610135546001600160a01b031690565b33600090815261013360205260408120546001600160701b0316900361193d5760405162461bcd60e51b8152600401610e8e906159b4565b6119456137ce565b306001600160a01b031663a08f22036040518163ffffffff1660e01b8152600401602060405180830381865afa158015611983573d6000803e3d6000fd5b505050506040513d601f19601f820116820180604052508101906119a7919061599b565b821115611a0a5760405162461bcd60e51b815260206004820152602b60248201527f4e6f7420656e6f7567682066756e647320617661696c61626c6520746f20636f60448201526a3b32b9103a34329029a1a960a91b6064820152608401610e8e565b611a1e611a15610bba565b61013190613e02565b610132546001600160801b0316600003611a9757611a3b82613e9f565b61013280546001600160801b0319166001600160801b0392909216919091179055611a6581613f0c565b61013280546001600160401b0392909216600160801b0267ffffffffffffffff60801b19909216919091179055611b50565b610132546001600160801b03166000611ab084836158f7565b9050611af6611af182611ac38688612ea2565b61013254611ae190600160801b90046001600160401b031687612ea2565b611aeb91906158f7565b90613a9e565b613f0c565b61013280546001600160401b0392909216600160801b0267ffffffffffffffff60801b19909216919091179055611b2c81613e9f565b61013280546001600160801b0319166001600160801b039290921691909117905550505b60408051828152602081018490527f333478c2835efe2f226b0d334f71bdf18c977621845f20d21fff75321fc8ab27910160405180910390a161105b6136f1565b600080516020615d9e8339815191527f00000000000000000000000000000000000000000000000000000000000000006001600160a01b03166371907f176040518163ffffffff1660e01b8152600401602060405180830381865afa158015611bfe573d6000803e3d6000fd5b505050506040513d601f19601f82011682018060405250810190611c2291906157f5565b6001600160a01b0316635ff57d2030833360016040518563ffffffff1660e01b8152600401611c549493929190615812565b60006040518083038186803b158015611c6c57600080fd5b505afa158015611c80573d6000803e3d6000fd5b50505050610f2b613f74565b600080516020615d9e833981519152600080516020615d378339815191527f00000000000000000000000000000000000000000000000000000000000000006001600160a01b03166371907f176040518163ffffffff1660e01b8152600401602060405180830381865afa158015611d08573d6000803e3d6000fd5b505050506040513d601f19601f82011682018060405250810190611d2c91906157f5565b6001600160a01b0316632b1cff1f3084843360016040518663ffffffff1660e01b8152600401611d6095949392919061590a565b60006040518083038186803b158015611d7857600080fd5b505afa158015611d8c573d6000803e3d6000fd5b505050506001600160a01b0383161580611e3857507f00000000000000000000000000000000000000000000000000000000000000006001600160a01b0316836001600160a01b0316634d15eb036040518163ffffffff1660e01b8152600401602060405180830381865afa158015611e09573d6000803e3d6000fd5b505050506040513d601f19601f82011682018060405250810190611e2d91906157f5565b6001600160a01b0316145b611e945760405162461bcd60e51b815260206004820152602760248201527f436f6d706f6e656e74206e6f74206c696e6b656420746f207468697320506f6c6044820152661a58de541bdbdb60ca1b6064820152608401610e8e565b6101348054600160401b600160e01b031916600160401b6001600160a01b03861602179055611ec4601784613fb1565b505050565b611ed16137ce565b60008211611f355760405162461bcd60e51b815260206004820152602b60248201527f45546f6b656e3a20616d6f756e742073686f756c64206265206772656174657260448201526a103a3430b7103d32b9379760a91b6064820152608401610e8e565b6001600160a01b038116600090815261013360205260408120805490916001600160701b039091169003611fab5760405162461bcd60e51b815260206004820152601960248201527f4e6f742061207265676973746572656420626f72726f776572000000000000006044820152606401610e8e565b611fbf83611fb761283e565b839190614004565b50611fc983613923565b816001600160a01b03167fa1aeb41f04a9a2aa1450e8edd0fa1a0a7971ff65c7bbb7b2ca0379b9327edbaf8460405161200491815260200190565b60405180910390a2611ec433308561201a612d3e565b6001600160a01b03169291906140ac565b60606101308054610b21906157c1565b600080306001600160a01b03166318160ddd6040518163ffffffff1660e01b8152600401602060405180830381865afa15801561207c573d6000803e3d6000fd5b505050506040513d601f19601f820116820180604052508101906120a0919061599b565b610132549091506001600160801b03168111156113f8576113f26120c2612c32565b610132546120d9906001600160801b0316846157ae565b90612ea2565b33600090815261012e602090815260408083206001600160a01b0386168452909152812054828110156121635760405162461bcd60e51b815260206004820152602660248201527f45546f6b656e3a2064656372656173656420616c6c6f77616e63652062656c6f60448201526577207a65726f60d01b6064820152608401610e8e565b6121723385610f4a86856157ae565b5060019392505050565b6000610bb13384846130cf565b33600090815261013360205260408120546001600160701b031690036121c15760405162461bcd60e51b8152600401610e8e906159b4565b6121c96137ce565b610132546001600160801b03168311156122415760405162461bcd60e51b815260206004820152603360248201527f43757272656e7420534352206c657373207468616e2074686520616d6f756e7460448201527220796f752077616e7420746f20756e6c6f636b60681b6064820152608401610e8e565b61224c611a15610bba565b610132546001600160801b03168390036122765761013280546001600160c01b0319169055612324565b610132546001600160801b0316600061228f85836157ae565b90506122ca611af1826122a28789612ea2565b610132546122c090600160801b90046001600160401b031687612ea2565b611aeb91906157ae565b61013280546001600160401b0392909216600160801b0267ffffffffffffffff60801b1990921691909117905561230081613e9f565b61013280546001600160801b0319166001600160801b039290921691909117905550505b60408051838152602081018590527f7b9d63ccbb37347ce0fe73e3663c640d22364d8c733839777f1729e59af1967f910160405180910390a1611ec481613923565b61013454600090610be79061ffff16614117565b600080516020615d7e8339815191527f5ec196419322369c6bac572d883f4d990ae5ec82f7d93cdf89b85dbb05b63c277f00000000000000000000000000000000000000000000000000000000000000006001600160a01b03166371907f176040518163ffffffff1660e01b8152600401602060405180830381865afa158015612408573d6000803e3d6000fd5b505050506040513d601f19601f8201168201806040525081019061242c91906157f5565b6001600160a01b0316632b1cff1f3084843360016040518663ffffffff1660e01b815260040161246095949392919061590a565b60006040518083038186803b15801561247857600080fd5b505afa15801561248c573d6000803e3d6000fd5b5050505060006124a9600080516020615d7e83398151915261412d565b15905060008560038111156124c0576124c0615a52565b0361257e578015806124e757506124e76124d8612366565b8567016345785d8a0000614224565b6125595760405162461bcd60e51b815260206004820152603a60248201527f547765616b2065786365656465643a206c69717569646974795265717569726560448201527f6d656e7420747765616b73206f6e6c7920757020746f203130250000000000006064820152608401610e8e565b612562846142ab565b610134805461ffff191661ffff929092169190911790556127ec565b600185600381111561259257612592615a52565b03612654578015806125b957506125b96125aa612dc2565b85670429d069189e0000614224565b6126265760405162461bcd60e51b815260206004820152603860248201527f547765616b2065786365656465643a206d696e5574696c697a6174696f6e5261604482015277746520747765616b73206f6e6c7920757020746f2033302560401b6064820152608401610e8e565b61262f846142ab565b610134805461ffff92909216620100000263ffff0000199092169190911790556127ec565b600285600381111561266857612668615a52565b0361271f5780158061268057506126806125aa612c32565b6126ed5760405162461bcd60e51b815260206004820152603860248201527f547765616b2065786365656465643a206d61785574696c697a6174696f6e5261604482015277746520747765616b73206f6e6c7920757020746f2033302560401b6064820152608401610e8e565b6126f6846142ab565b610134805461ffff929092166401000000000265ffff00000000199092169190911790556127ec565b600385600381111561273357612733615a52565b036127ec5780158061274b575061274b6125aa61283e565b6127bd5760405162461bcd60e51b815260206004820152603e60248201527f547765616b2065786365656465643a20696e7465726e616c4c6f616e496e746560448201527f726573745261746520747765616b73206f6e6c7920757020746f2033302500006064820152608401610e8e565b6127c6846142ab565b610134805461ffff92909216600160301b0267ffff000000000000199092169190911790555b61175d85600381111561280157612801615a52565b61280c9060186158f7565b602d81111561281d5761281d615a52565b85836142c5565b61282c6137ce565b61283461122a565b61283c6118bd565b565b61013454600090610be790600160301b900461ffff16614117565b600080516020615d9e833981519152600080516020615d378339815191527f00000000000000000000000000000000000000000000000000000000000000006001600160a01b03166371907f176040518163ffffffff1660e01b8152600401602060405180830381865afa1580156128d5573d6000803e3d6000fd5b505050506040513d601f19601f820116820180604052508101906128f991906157f5565b6001600160a01b0316632b1cff1f3084843360016040518663ffffffff1660e01b815260040161292d95949392919061590a565b60006040518083038186803b15801561294557600080fd5b505afa158015612959573d6000803e3d6000fd5b505050506001600160a01b03841615806129dd57506040516301ffc9a760e01b8152631e670a9760e21b60048201526001600160a01b038516906301ffc9a790602401602060405180830381865afa1580156129b9573d6000803e3d6000fd5b505050506040513d601f19601f820116820180604052508101906129dd919061597e565b612a51576040805162461bcd60e51b81526020600482015260248101919091527f526573657276653a206173736574206d616e6167657220646f65736e2774206960448201527f6d706c656d656e74732074686520726571756972656420696e746572666163656064820152608401610e8e565b6000612a66610135546001600160a01b031690565b905060026001600160a01b03821615612b8e578415612b335760408051600481526024810182526020810180516001600160e01b031663cec16f3f60e01b179052905160009182916001600160a01b03861691612ac291615a68565b600060405180830381855af49150503d8060008114612afd576040519150601f19603f3d011682016040523d82523d6000602084013e612b02565b606091505b509150915081612b155760039250612b2c565b612b2c8180602001905181019061128e919061599b565b5050612b8e565b6040805160048152602481019091526020810180516001600160e01b031663cec16f3f60e01b179052600090612b73906001600160a01b03851690613030565b9050612b8c8180602001905181019061128e919061599b565b505b61013580546001600160a01b0319166001600160a01b03881690811790915591508115612bf4576040805160048152602481019091526020810180516001600160e01b031663948cb71960e01b179052612bf2906001600160a01b03841690613030565b505b612bfe8187613fb1565b505050505050565b6001600160a01b03918216600090815261012e6020908152604080832093909416825291909152205490565b61013454600090610be790640100000000900461ffff16614117565b337f00000000000000000000000000000000000000000000000000000000000000006001600160a01b031614612c965760405162461bcd60e51b8152600401610e8e9061593d565b6001600160a01b038116612cbc5760405162461bcd60e51b8152600401610e8e90615a07565b6001600160a01b038116600090815261013360205260408120805490916001600160701b03909116900361105b57676765c793fa10079d601b1b600160e01b4263ffffffff16021781556040516001600160a01b038316907f66c0f28249c4fc4db79872a4405be78a93f19c65ac9ef2f173867a149065bcf290600090a25050565b60007f00000000000000000000000000000000000000000000000000000000000000006001600160a01b031663e5a6b10f6040518163ffffffff1660e01b8152600401602060405180830381865afa158015612d9e573d6000803e3d6000fd5b505050506040513d601f19601f82011682018060405250810190610be791906157f5565b61013454600090610be79062010000900461ffff16614117565b6000337f00000000000000000000000000000000000000000000000000000000000000006001600160a01b031614612e265760405162461bcd60e51b8152600401610e8e9061593d565b612e3e82611455612e3686611764565b611455610ac1565b915081600003612e5057506000610abb565b612e5a8383614326565b612e626136f1565b610d0a8383613941565b60006001600160e01b031982166301ffc9a760e01b1480610abb57506001600160e01b03198216634d15eb0360e01b1492915050565b600081156706f05b59d3b200001983900484111517612ec057600080fd5b50670de0b6b3a764000091026706f05b59d3b20000010490565b6001600160a01b038316612f3e5760405162461bcd60e51b815260206004820152602560248201527f45546f6b656e3a20617070726f76652066726f6d20746865207a65726f206164604482015264647265737360d81b6064820152608401610e8e565b6001600160a01b038216612fa05760405162461bcd60e51b815260206004820152602360248201527f45546f6b656e3a20617070726f766520746f20746865207a65726f206164647260448201526265737360e81b6064820152608401610e8e565b6001600160a01b03838116600081815261012e602090815260408083209487168084529482529182902085905590518481527f8c5be1e5ebec7d5bd14f71427d1e84f3dd0314c0f7b2291e5b200ac8c7c3b92591015b60405180910390a3505050565b6000610d2f6117b76130158585613cf7565b85546117b190600160701b90046001600160701b0316613ce1565b6060610d2f8383604051806060016040528060278152602001615d576027913961448b565b60006130618484612c06565b905060001981146130c957818110156130bc5760405162461bcd60e51b815260206004820152601e60248201527f45546f6b656e3a20696e73756666696369656e7420616c6c6f77616e636500006044820152606401610e8e565b6130c98484848403612eda565b50505050565b6001600160a01b0383166131345760405162461bcd60e51b815260206004820152602660248201527f45546f6b656e3a207472616e736665722066726f6d20746865207a65726f206160448201526564647265737360d01b6064820152608401610e8e565b6001600160a01b0382166131965760405162461bcd60e51b8152602060048201526024808201527f45546f6b656e3a207472616e7366657220746f20746865207a65726f206164646044820152637265737360e01b6064820152608401610e8e565b6131a183838361451f565b60006131b86131ae610bba565b6101319084614664565b6001600160a01b038516600090815261012d6020526040902054909150818110156132355760405162461bcd60e51b815260206004820152602760248201527f45546f6b656e3a207472616e7366657220616d6f756e7420657863656564732060448201526662616c616e636560c81b6064820152608401610e8e565b61323f82826157ae565b6001600160a01b03808716600090815261012d602052604080822093909355908616815290812080548492906132769084906158f7565b92505081905550836001600160a01b0316856001600160a01b03167fddf252ad1be2c89b69c2b068fc378daa952ba7f163c4a11628f55a4df523b3ef856040516132c291815260200190565b60405180910390a35050505050565b600080516020615d9e833981519152600080516020615d378339815191527f00000000000000000000000000000000000000000000000000000000000000006001600160a01b03166371907f176040518163ffffffff1660e01b8152600401602060405180830381865afa15801561334d573d6000803e3d6000fd5b505050506040513d601f19601f8201168201806040525081019061337191906157f5565b6001600160a01b0316632b1cff1f3084843360016040518663ffffffff1660e01b81526004016133a595949392919061590a565b60006040518083038186803b1580156133bd57600080fd5b505afa1580156133d1573d6000803e3d6000fd5b50505050611ec483614685565b7f4910fdfa16fed3260ed0e7147f7cc6da11a60208b5b9406d12a635614ffd91435460ff161561341157611ec483614776565b826001600160a01b03166352d1902d6040518163ffffffff1660e01b8152600401602060405180830381865afa92505050801561346b575060408051601f3d908101601f191682019092526134689181019061599b565b60015b6134ce5760405162461bcd60e51b815260206004820152602e60248201527f45524331393637557067726164653a206e657720696d706c656d656e7461746960448201526d6f6e206973206e6f74205555505360901b6064820152608401610e8e565b600080516020615d17833981519152811461353d5760405162461bcd60e51b815260206004820152602960248201527f45524331393637557067726164653a20756e737570706f727465642070726f786044820152681a58589b195555525160ba1b6064820152608401610e8e565b50611ec4838383614812565b613551614837565b6097805460ff191690557f5db9ee0a495bf2e6ff9c91a7834c1ba4fdd244a5e8aa4e537bd38aeae4b073aa335b6040516001600160a01b03909116815260200160405180910390a1565b6001600160a01b0382166135f15760405162461bcd60e51b815260206004820181905260248201527f45546f6b656e3a206d696e7420746f20746865207a65726f20616464726573736044820152606401610e8e565b6000811161365c5760405162461bcd60e51b815260206004820152603260248201527f45546f6b656e3a20616d6f756e7420746f206d696e742073686f756c642062656044820152712067726561746572207468616e207a65726f60701b6064820152608401610e8e565b6136686000838361451f565b600061368082613676610bba565b61013191906138a3565b6001600160a01b038416600090815261012d60205260408120805492935083929091906136ae9084906158f7565b90915550506040518281526001600160a01b038416906000907fddf252ad1be2c89b69c2b068fc378daa952ba7f163c4a11628f55a4df523b3ef90602001612ff6565b6000306001600160a01b03166318160ddd6040518163ffffffff1660e01b8152600401602060405180830381865afa158015613731573d6000803e3d6000fd5b505050506040513d601f19601f82011682018060405250810190613755919061599b565b9050806000036137725761013280546001600160c01b0316905550565b610132546137a390611af1908390611aeb906001600160401b03600160801b820416906001600160801b0316612ea2565b61013280546001600160401b0392909216600160c01b026001600160c01b0390921691909117905550565b60975460ff161561283c5760405162461bcd60e51b815260206004820152601060248201526f14185d5cd8589b194e881c185d5cd95960821b6044820152606401610e8e565b610f2b81613923565b600081831061382c5781610d2f565b5090919050565b6000806138408484613003565b8454909150600090613873906117b79067016345785d8a0000906117b190600160701b90046001600160701b0316613ce1565b9050808211156138905761388781836157ae565b92505050610abb565b600092505050610abb565b505092915050565b60006138af8483613e02565b60006138bb8585614880565b90506138c68161489f565b6001600160601b031685600001600e8282829054906101000a90046001600160701b03166138f49190615a84565b92506101000a8154816001600160701b0302191690836001600160701b03160217905550809150509392505050565b6139398161392f610bba565b6101319190614907565b610f2b6136f1565b6001600160a01b0382166139a55760405162461bcd60e51b815260206004820152602560248201527f526573657276653a207472616e7366657220746f20746865207a65726f206164604482015264647265737360d81b6064820152608401610e8e565b806000036139b1575050565b60006139bb612d3e565b6040516370a0823160e01b81523060048201526001600160a01b0391909116906370a0823190602401602060405180830381865afa158015613a01573d6000803e3d6000fd5b505050506040513d601f19601f82011682018060405250810190613a25919061599b565b905081811015613a8157613a38826149e0565b613a4290826158f7565b905080821115613a81577f0000000000000000000000000000000000000000000000000000000000000000613a7782846157ae565b1015613a81578091505b611ec48383613a8e612d3e565b6001600160a01b03169190614ab6565b60008115670de0b6b3a764000060028404190484111715613abe57600080fd5b50670de0b6b3a76400009190910260028204010490565b600054610100900460ff16613afc5760405162461bcd60e51b8152600401610e8e90615aab565b61283c614ae6565b600054610100900460ff16613b2b5760405162461bcd60e51b8152600401610e8e90615aab565b6000845111613b7c5760405162461bcd60e51b815260206004820152601c60248201527f45546f6b656e3a206e616d652063616e6e6f7420626520656d707479000000006044820152606401610e8e565b6000835111613bcd5760405162461bcd60e51b815260206004820152601e60248201527f45546f6b656e3a2073796d626f6c2063616e6e6f7420626520656d70747900006044820152606401610e8e565b61012f613bda8582615b3c565b50610130613be88482615b3c565b50676765c793fa10079d601b1b600160e01b4263ffffffff160217610131556040805160a081018252612710815260006020820152908101613c29846142ab565b61ffff168152602001613c3b836142ab565b61ffff908116825260006020928301528251610134805493850151604086015160608701516080909701516001600160a01b0316600160401b02600160401b600160e01b0319978616600160301b0267ffff00000000000019928716640100000000029290921667ffffffff0000000019938716620100000263ffffffff19909816959096169490941795909517169290921792909217929092161790556130c9614b1d565b633b9aca0081810290810482146118b857600080fd5b8154600090429063ffffffff808316600160e01b9092041610613d2657505081546001600160701b0316610abb565b8354600090613d4290600160e01b900463ffffffff1683615bfb565b63ffffffff169050613d97676765c793fa10079d601b1b6301e1338083613d6888613ce1565b613d729190615c18565b613d7c9190615c37565b613d8691906158f7565b86546001600160701b031690613da0565b95945050505050565b600081156b019d971e4fe8401e740000001983900484111517613dc257600080fd5b50676765c793fa10079d601b1b91026b019d971e4fe8401e74000000010490565b633b9aca00808204908206631dcd65008110610d0a5750600101919050565b815463ffffffff428116600160e01b9092041610613e1e575050565b8154600160701b90046001600160701b0316600003613e55575080546001600160e01b0316600160e01b4263ffffffff1602179055565b613e67613e628383613cf7565b614d36565b82546001600160701b03919091166dffffffffffffffffffffffffffff60701b90911617600160e01b4263ffffffff16021790915550565b60006001600160801b03821115613f085760405162461bcd60e51b815260206004820152602760248201527f53616665436173743a2076616c756520646f65736e27742066697420696e20316044820152663238206269747360c81b6064820152608401610e8e565b5090565b60006001600160401b03821115613f085760405162461bcd60e51b815260206004820152602660248201527f53616665436173743a2076616c756520646f65736e27742066697420696e203660448201526534206269747360d01b6064820152608401610e8e565b613f7c6137ce565b6097805460ff191660011790557f62e78cea01bee320cd4e420270b5ea74000d11b0c9f74754ebdbfc544b05a25861357e3390565b613fb9614b1d565b81602d811115613fcb57613fcb615a52565b6040516001600160a01b03831681527fb6bdbd44472629fc24a00b6f4ee3348b72c9eff333d0e9c16d78c49da1323c8f90602001611887565b60006140108483613e02565b600061401c8585614880565b90506140278161489f565b6001600160601b031685600001600e8282829054906101000a90046001600160701b03166140559190615c59565b82546101009290920a6001600160701b038181021990931691831602179091558654600160701b90041660000390506140a45784546001600160701b031916676765c793fa10079d601b1b1785555b949350505050565b6040516001600160a01b03808516602483015283166044820152606481018290526130c99085906323b872dd60e01b906084015b60408051601f198184030181529190526020810180516001600160e01b03166001600160e01b031990931692909217909152614d9f565b6000610abb655af3107a400061ffff8416615c18565b60007f00000000000000000000000000000000000000000000000000000000000000006001600160a01b03166371907f176040518163ffffffff1660e01b8152600401602060405180830381865afa15801561418d573d6000803e3d6000fd5b505050506040513d601f19601f820116820180604052508101906141b191906157f5565b6001600160a01b031663b3efcbd230843360016040518563ffffffff1660e01b81526004016141e39493929190615812565b602060405180830381865afa158015614200573d6000803e3d6000fd5b505050506040513d601f19601f82011682018060405250810190610abb919061597e565b600082840361423557506001610d2f565b8360000361424f5750670de0b6b3a7640000811015610d2f565b8260000361425f57506000610d2f565b8284101561428e5781670de0b6b3a764000061427b8587613a9e565b61428591906157ae565b11159050610d2f565b816142998486613a9e565b61428590670de0b6b3a76400006157ae565b6000610abb6142c0655af3107a400084615c37565b614e71565b6142cd614b1d565b80156142dc576142dc83614ed4565b82602d8111156142ee576142ee615a52565b6040518381527f7bc647fe5043209e2019aa3503b79c1b0dd83eb61c56013d373a7584ff6bfb139060200160405180910390a2505050565b6001600160a01b0382166143875760405162461bcd60e51b815260206004820152602260248201527f45546f6b656e3a206275726e2066726f6d20746865207a65726f206164647265604482015261737360f01b6064820152608401610e8e565b6143938260008361451f565b60006143ab826143a1610bba565b6101319190614004565b6001600160a01b038416600090815261012d6020526040902054909150818110156144245760405162461bcd60e51b815260206004820152602360248201527f45546f6b656e3a206275726e20616d6f756e7420657863656564732062616c616044820152626e636560e81b6064820152608401610e8e565b61442e82826157ae565b6001600160a01b038516600081815261012d60205260408082209390935591517fddf252ad1be2c89b69c2b068fc378daa952ba7f163c4a11628f55a4df523b3ef9061447d9087815260200190565b60405180910390a350505050565b60606001600160a01b0384163b6144b45760405162461bcd60e51b8152600401610e8e90615c79565b600080856001600160a01b0316856040516144cf9190615a68565b600060405180830381855af49150503d806000811461450a576040519150601f19603f3d011682016040523d82523d6000602084013e61450f565b606091505b509150915061150c828286615040565b6145276137ce565b6001600160a01b038316158061454457506001600160a01b038216155b80614560575061013454600160401b90046001600160a01b0316155b806145f2575061013454604051635fcdca3760e01b81523060048201526001600160a01b038581166024830152848116604483015260648201849052600160401b90920490911690635fcdca3790608401602060405180830381865afa1580156145ce573d6000803e3d6000fd5b505050506040513d601f19601f820116820180604052508101906145f2919061597e565b611ec45760405162461bcd60e51b815260206004820152603960248201527f5472616e73666572206e6f7420616c6c6f776564202d204c697175696469747960448201527f2050726f7669646572206e6f742077686974656c6973746564000000000000006064820152608401610e8e565b60006140a46117b76146768686613cf7565b61467f85613ce1565b90615079565b7f00000000000000000000000000000000000000000000000000000000000000006001600160a01b0316816001600160a01b0316634d15eb036040518163ffffffff1660e01b8152600401602060405180830381865afa1580156146ed573d6000803e3d6000fd5b505050506040513d601f19601f8201168201806040525081019061471191906157f5565b6001600160a01b031614610f2b5760405162461bcd60e51b815260206004820152602660248201527f43616e27742075706772616465206368616e67696e672074686520506f6c696360448201526579506f6f6c2160d01b6064820152608401610e8e565b6001600160a01b0381163b6147e35760405162461bcd60e51b815260206004820152602d60248201527f455243313936373a206e657720696d706c656d656e746174696f6e206973206e60448201526c1bdd08184818dbdb9d1c9858dd609a1b6064820152608401610e8e565b600080516020615d1783398151915280546001600160a01b0319166001600160a01b0392909216919091179055565b61481b836150b6565b6000825111806148285750805b15611ec4576130c983836150f6565b60975460ff1661283c5760405162461bcd60e51b815260206004820152601460248201527314185d5cd8589b194e881b9bdd081c185d5cd95960621b6044820152606401610e8e565b8154600090610d2f906117b7906001600160701b031661467f85613ce1565b60006001600160601b03821115613f085760405162461bcd60e51b815260206004820152602660248201527f53616665436173743a2076616c756520646f65736e27742066697420696e203960448201526536206269747360d01b6064820152608401610e8e565b6149118382613e02565b60008261491e8584613003565b6149289190615cbf565b845490915061495790613e629061494e90600160701b90046001600160701b0316613ce1565b61467f84613ce1565b84546001600160701b0319166001600160701b0391909116908117855567016345785d8a000011156130c95760405162461bcd60e51b815260206004820152602c60248201527f5363616c6520746f6f20736d616c6c2c2063616e206c65616420746f20726f7560448201526b6e64696e67206572726f727360a01b6064820152608401610e8e565b6000806149f6610135546001600160a01b031690565b90506001600160a01b03811615614aad576000614a97631014a0c260e01b85604051602401614a2791815260200190565b60408051601f19818403018152918152602080830180516001600160e01b03166001600160e01b03199095169490941790935280518082019091526016815275115c9c9bdc881c99599a5b1b1a5b99c81dd85b1b195d60521b928101929092526001600160a01b0385169161448b565b9050808060200190518101906140a4919061599b565b50600092915050565b6040516001600160a01b038316602482015260448101829052611ec490849063a9059cbb60e01b906064016140e0565b600054610100900460ff16614b0d5760405162461bcd60e51b8152600401610e8e90615aab565b614b156151a2565b61283c6151c9565b61013454611f4061ffff90911610801590614b435750610134546132c861ffff90911611155b614bab5760405162461bcd60e51b815260206004820152603360248201527f56616c69646174696f6e3a206c6971756964697479526571756972656d656e74604482015272206d757374206265205b302e382c20312e335d60681b6064820152608401610e8e565b6101345461138864010000000090910461ffff1610801590614bdf57506101345461271064010000000090910461ffff1611155b614c435760405162461bcd60e51b815260206004820152602f60248201527f56616c69646174696f6e3a206d61785574696c697a6174696f6e52617465206d60448201526e757374206265205b302e352c20315d60881b6064820152608401610e8e565b610134546127106201000090910461ffff161115614cb95760405162461bcd60e51b815260206004820152602d60248201527f56616c69646174696f6e3a206d696e5574696c697a6174696f6e52617465206d60448201526c757374206265205b302c20315d60981b6064820152608401610e8e565b61013454611388600160301b90910461ffff16111561283c5760405162461bcd60e51b815260206004820152603360248201527f56616c69646174696f6e3a20696e7465726e616c4c6f616e496e74657265737460448201527252617465206d757374206265203c3d2035302560681b6064820152608401610e8e565b60006001600160701b03821115613f085760405162461bcd60e51b815260206004820152602760248201527f53616665436173743a2076616c756520646f65736e27742066697420696e20316044820152663132206269747360c81b6064820152608401610e8e565b6000614df4826040518060400160405280602081526020017f5361666545524332303a206c6f772d6c6576656c2063616c6c206661696c6564815250856001600160a01b03166151f89092919063ffffffff16565b805190915015611ec45780806020019051810190614e12919061597e565b611ec45760405162461bcd60e51b815260206004820152602a60248201527f5361666545524332303a204552433230206f7065726174696f6e20646964206e6044820152691bdd081cdd58d8d9595960b21b6064820152608401610e8e565b600061ffff821115613f085760405162461bcd60e51b815260206004820152602660248201527f53616665436173743a2076616c756520646f65736e27742066697420696e203160448201526536206269747360d01b6064820152608401610e8e565b6000600182602d811115614eea57614eea615a52565b614ef49190615cdf565b60c954600160ff929092169190911b91506201518090614f1b9064ffffffffff1642615cf8565b64ffffffffff161115614f5d5760c9805466ffffffffffffff8316600160281b026bffffffffffffffffffffffff1990911664ffffffffff4216171790555050565b60c954600160281b9004811666ffffffffffffff16600003614fc25760c9805464ffffffffff421664ffffffffff1966ffffffffffffff808616600160281b808604929092161702166bffffffffffffffffffffffff19909216919091171790555050565b60405162461bcd60e51b815260206004820152604760248201527f596f7520616c726561647920747765616b6564207468697320706172616d657460448201527f657220726563656e746c792e2057616974206265666f726520747765616b696e606482015266339030b3b0b4b760c91b608482015260a401610e8e565b6060831561504f575081610d2f565b82511561505f5782518084602001fd5b8160405162461bcd60e51b8152600401610e8e91906153e5565b60008115676765c793fa10079d601b1b6002840419048411171561509c57600080fd5b50676765c793fa10079d601b1b9190910260028204010490565b6150bf81614776565b6040516001600160a01b038216907fbc7cd75a20ee27fd9adebab32041f755214dbc6bffa90cc0225b39da2e5c2d3b90600090a250565b60606001600160a01b0383163b61511f5760405162461bcd60e51b8152600401610e8e90615c79565b600080846001600160a01b03168460405161513a9190615a68565b600060405180830381855af49150503d8060008114615175576040519150601f19603f3d011682016040523d82523d6000602084013e61517a565b606091505b5091509150613d978282604051806060016040528060278152602001615d5760279139615040565b600054610100900460ff1661283c5760405162461bcd60e51b8152600401610e8e90615aab565b600054610100900460ff166151f05760405162461bcd60e51b8152600401610e8e90615aab565b61283c615207565b60606140a4848460008561523a565b600054610100900460ff1661522e5760405162461bcd60e51b8152600401610e8e90615aab565b6097805460ff19169055565b60608247101561529b5760405162461bcd60e51b815260206004820152602660248201527f416464726573733a20696e73756666696369656e742062616c616e636520666f6044820152651c8818d85b1b60d21b6064820152608401610e8e565b6001600160a01b0385163b6152f25760405162461bcd60e51b815260206004820152601d60248201527f416464726573733a2063616c6c20746f206e6f6e2d636f6e74726163740000006044820152606401610e8e565b600080866001600160a01b0316858760405161530e9190615a68565b60006040518083038185875af1925050503d806000811461534b576040519150601f19603f3d011682016040523d82523d6000602084013e615350565b606091505b5091509150615360828286615040565b979650505050505050565b60006020828403121561537d57600080fd5b81356001600160e01b031981168114610d2f57600080fd5b60005b838110156153b0578181015183820152602001615398565b50506000910152565b600081518084526153d1816020860160208601615395565b601f01601f19169290920160200192915050565b602081526000610d2f60208301846153b9565b6001600160a01b0381168114610f2b57600080fd5b6000806040838503121561542057600080fd5b823561542b816153f8565b946020939093013593505050565b634e487b7160e01b600052604160045260246000fd5b600082601f83011261546057600080fd5b81356001600160401b038082111561547a5761547a615439565b604051601f8301601f19908116603f011681019082821181831017156154a2576154a2615439565b816040528381528660208588010111156154bb57600080fd5b836020870160208301376000602085830101528094505050505092915050565b6000602082840312156154ed57600080fd5b81356001600160401b0381111561550357600080fd5b6140a48482850161544f565b60008060006060848603121561552457600080fd5b833561552f816153f8565b9250602084013561553f816153f8565b929592945050506040919091013590565b60006020828403121561556257600080fd5b8135610d2f816153f8565b6000806040838503121561558057600080fd5b823561558b816153f8565b915060208301356001600160401b038111156155a657600080fd5b6155b28582860161544f565b9150509250929050565b8015158114610f2b57600080fd5b6000806000606084860312156155df57600080fd5b8335925060208401356155f1816153f8565b91506040840135615601816155bc565b809150509250925092565b6000806000806080858703121561562257600080fd5b84356001600160401b038082111561563957600080fd5b6156458883890161544f565b9550602087013591508082111561565b57600080fd5b506156688782880161544f565b949794965050505060408301359260600135919050565b60006020828403121561569157600080fd5b8135610d2f816155bc565b600080604083850312156156af57600080fd5b50508035926020909101359150565b600080604083850312156156d157600080fd5b8235915060208301356156e3816153f8565b809150509250929050565b60008060006060848603121561570357600080fd5b505081359360208301359350604090920135919050565b6000806040838503121561572d57600080fd5b82356004811061542b57600080fd5b6000806040838503121561574f57600080fd5b823561575a816153f8565b915060208301356156e3816155bc565b6000806040838503121561577d57600080fd5b8235615788816153f8565b915060208301356156e3816153f8565b634e487b7160e01b600052601160045260246000fd5b81810381811115610abb57610abb615798565b600181811c908216806157d557607f821691505b602082108103610d0a57634e487b7160e01b600052602260045260246000fd5b60006020828403121561580757600080fd5b8151610d2f816153f8565b6001600160a01b039485168152602081019390935292166040820152901515606082015260800190565b60006020828403121561584e57600080fd5b815160ff81168114610d2f57600080fd5b6020808252602c908201527f46756e6374696f6e206d7573742062652063616c6c6564207468726f7567682060408201526b19195b1959d85d1958d85b1b60a21b606082015260800190565b6020808252602c908201527f46756e6374696f6e206d7573742062652063616c6c6564207468726f7567682060408201526b6163746976652070726f787960a01b606082015260800190565b80820180821115610abb57610abb615798565b6001600160a01b039586168152602081019490945260408401929092529092166060820152901515608082015260a00190565b60208082526021908201527f5468652063616c6c6572206d7573742062652074686520506f6c696379506f6f6040820152601b60fa1b606082015260800190565b60006020828403121561599057600080fd5b8151610d2f816155bc565b6000602082840312156159ad57600080fd5b5051919050565b6020808252601d908201527f5468652063616c6c6572206d757374206265206120626f72726f776572000000604082015260600190565b6000600160ff1b8201615a0057615a00615798565b5060000390565b6020808252602b908201527f45546f6b656e3a20426f72726f7765722063616e6e6f7420626520746865207a60408201526a65726f206164647265737360a81b606082015260800190565b634e487b7160e01b600052602160045260246000fd5b60008251615a7a818460208701615395565b9190910192915050565b6001600160701b03818116838216019080821115615aa457615aa4615798565b5092915050565b6020808252602b908201527f496e697469616c697a61626c653a20636f6e7472616374206973206e6f74206960408201526a6e697469616c697a696e6760a81b606082015260800190565b601f821115611ec457600081815260208120601f850160051c81016020861015615b1d5750805b601f850160051c820191505b81811015612bfe57828155600101615b29565b81516001600160401b03811115615b5557615b55615439565b615b6981615b6384546157c1565b84615af6565b602080601f831160018114615b9e5760008415615b865750858301515b600019600386901b1c1916600185901b178555612bfe565b600085815260208120601f198616915b82811015615bcd57888601518255948401946001909101908401615bae565b5085821015615beb5787850151600019600388901b60f8161c191681555b5050505050600190811b01905550565b63ffffffff828116828216039080821115615aa457615aa4615798565b6000816000190483118215151615615c3257615c32615798565b500290565b600082615c5457634e487b7160e01b600052601260045260246000fd5b500490565b6001600160701b03828116828216039080821115615aa457615aa4615798565b60208082526026908201527f416464726573733a2064656c65676174652063616c6c20746f206e6f6e2d636f6040820152651b9d1c9858dd60d21b606082015260800190565b808201828112600083128015821682158216171561389b5761389b615798565b60ff8281168282160390811115610abb57610abb615798565b64ffffffffff828116828216039080821115615aa457615aa461579856fe360894a13ba1a3210667c828492db98dca3e2076cc3735a920a3ca505d382bbcbf372ca3ebecfe59ac256f17697941bbe63302aced610e8b0e3646f743c7beb2416464726573733a206c6f772d6c6576656c2064656c65676174652063616c6c206661696c6564a82e22387fca439f316d78ca566f383218ab8ae1b3e830178c9c82cbd16749c055435dd261a4b9b3364963f7738a7a662ad9c84396d64be3365284bb7f0a5041a2646970667358221220ae53c6d93ae31ce7acbd64592d3413851bcc3b2625fc309eeb6740244b21930664736f6c63430008100033",
  "linkReferences": {},
  "deployedLinkReferences": {}
}