{
  "_format": "hh-sol-artifact-1",
  "contractName": "LPManualWhitelist",
  "sourceName": "contracts/LPManualWhitelist.sol",
  "abi": [
    {
      "inputs": [
        {
          "internalType": "contract IPolicyPool",
          "name": "policyPool_",
          "type": "address"
        }
      ],
      "stateMutability": "nonpayable",
      "type": "constructor"
    },
    {
      "anonymous": false,
      "inputs": [
        {
          "indexed": false,
          "internalType": "address",
          "name": "previousAdmin",
          "type": "address"
        },
        {
          "indexed": false,
          "internalType": "address",
          "name": "newAdmin",
          "type": "address"
        }
      ],
      "name": "AdminChanged",
      "type": "event"
    },
    {
      "anonymous": false,
      "inputs": [
        {
          "indexed": true,
          "internalType": "address",
          "name": "beacon",
          "type": "address"
        }
      ],
      "name": "BeaconUpgraded",
      "type": "event"
    },
    {
      "anonymous": false,
      "inputs": [
        {
          "indexed": true,
          "internalType": "enum IAccessManager.GovernanceActions",
          "name": "action",
          "type": "uint8"
        },
        {
          "indexed": false,
          "internalType": "address",
          "name": "value",
          "type": "address"
        }
      ],
      "name": "ComponentChanged",
      "type": "event"
    },
    {
      "anonymous": false,
      "inputs": [
        {
          "indexed": true,
          "internalType": "enum IAccessManager.GovernanceActions",
          "name": "action",
          "type": "uint8"
        },
        {
          "indexed": false,
          "internalType": "uint256",
          "name": "value",
          "type": "uint256"
        }
      ],
      "name": "GovernanceAction",
      "type": "event"
    },
    {
      "anonymous": false,
      "inputs": [
        {
          "indexed": false,
          "internalType": "uint8",
          "name": "version",
          "type": "uint8"
        }
      ],
      "name": "Initialized",
      "type": "event"
    },
    {
      "anonymous": false,
      "inputs": [
        {
          "indexed": false,
          "internalType": "address",
          "name": "provider",
          "type": "address"
        },
        {
          "indexed": false,
          "internalType": "bool",
          "name": "whitelisted",
          "type": "bool"
        }
      ],
      "name": "LPWhitelisted",
      "type": "event"
    },
    {
      "anonymous": false,
      "inputs": [
        {
          "indexed": false,
          "internalType": "address",
          "name": "account",
          "type": "address"
        }
      ],
      "name": "Paused",
      "type": "event"
    },
    {
      "anonymous": false,
      "inputs": [
        {
          "indexed": false,
          "internalType": "address",
          "name": "account",
          "type": "address"
        }
      ],
      "name": "Unpaused",
      "type": "event"
    },
    {
      "anonymous": false,
      "inputs": [
        {
          "indexed": true,
          "internalType": "address",
          "name": "implementation",
          "type": "address"
        }
      ],
      "name": "Upgraded",
      "type": "event"
    },
    {
      "inputs": [],
      "name": "GUARDIAN_ROLE",
      "outputs": [
        {
          "internalType": "bytes32",
          "name": "",
          "type": "bytes32"
        }
      ],
      "stateMutability": "view",
      "type": "function"
    },
    {
      "inputs": [],
      "name": "LEVEL1_ROLE",
      "outputs": [
        {
          "internalType": "bytes32",
          "name": "",
          "type": "bytes32"
        }
      ],
      "stateMutability": "view",
      "type": "function"
    },
    {
      "inputs": [],
      "name": "LEVEL2_ROLE",
      "outputs": [
        {
          "internalType": "bytes32",
          "name": "",
          "type": "bytes32"
        }
      ],
      "stateMutability": "view",
      "type": "function"
    },
    {
      "inputs": [],
      "name": "LEVEL3_ROLE",
      "outputs": [
        {
          "internalType": "bytes32",
          "name": "",
          "type": "bytes32"
        }
      ],
      "stateMutability": "view",
      "type": "function"
    },
    {
      "inputs": [],
      "name": "LP_WHITELIST_ROLE",
      "outputs": [
        {
          "internalType": "bytes32",
          "name": "",
          "type": "bytes32"
        }
      ],
      "stateMutability": "view",
      "type": "function"
    },
    {
      "inputs": [],
      "name": "TWEAK_EXPIRATION",
      "outputs": [
        {
          "internalType": "uint40",
          "name": "",
          "type": "uint40"
        }
      ],
      "stateMutability": "view",
      "type": "function"
    },
    {
      "inputs": [
        {
          "internalType": "contract IEToken",
          "name": "",
          "type": "address"
        },
        {
          "internalType": "address",
          "name": "provider",
          "type": "address"
        },
        {
          "internalType": "uint256",
          "name": "",
          "type": "uint256"
        }
      ],
      "name": "acceptsDeposit",
      "outputs": [
        {
          "internalType": "bool",
          "name": "",
          "type": "bool"
        }
      ],
      "stateMutability": "view",
      "type": "function"
    },
    {
      "inputs": [
        {
          "internalType": "contract IEToken",
          "name": "",
          "type": "address"
        },
        {
          "internalType": "address",
          "name": "",
          "type": "address"
        },
        {
          "internalType": "address",
          "name": "providerTo",
          "type": "address"
        },
        {
          "internalType": "uint256",
          "name": "",
          "type": "uint256"
        }
      ],
      "name": "acceptsTransfer",
      "outputs": [
        {
          "internalType": "bool",
          "name": "",
          "type": "bool"
        }
      ],
      "stateMutability": "view",
      "type": "function"
    },
    {
      "inputs": [],
      "name": "currency",
      "outputs": [
        {
          "internalType": "contract IERC20Metadata",
          "name": "",
          "type": "address"
        }
      ],
      "stateMutability": "view",
      "type": "function"
    },
    {
      "inputs": [],
      "name": "initialize",
      "outputs": [],
      "stateMutability": "nonpayable",
      "type": "function"
    },
    {
      "inputs": [],
      "name": "lastTweak",
      "outputs": [
        {
          "internalType": "uint40",
          "name": "",
          "type": "uint40"
        },
        {
          "internalType": "uint56",
          "name": "",
          "type": "uint56"
        }
      ],
      "stateMutability": "view",
      "type": "function"
    },
    {
      "inputs": [],
      "name": "pause",
      "outputs": [],
      "stateMutability": "nonpayable",
      "type": "function"
    },
    {
      "inputs": [],
      "name": "paused",
      "outputs": [
        {
          "internalType": "bool",
          "name": "",
          "type": "bool"
        }
      ],
      "stateMutability": "view",
      "type": "function"
    },
    {
      "inputs": [],
      "name": "policyPool",
      "outputs": [
        {
          "internalType": "contract IPolicyPool",
          "name": "",
          "type": "address"
        }
      ],
      "stateMutability": "view",
      "type": "function"
    },
    {
      "inputs": [],
      "name": "proxiableUUID",
      "outputs": [
        {
          "internalType": "bytes32",
          "name": "",
          "type": "bytes32"
        }
      ],
      "stateMutability": "view",
      "type": "function"
    },
    {
      "inputs": [
        {
          "internalType": "bytes4",
          "name": "interfaceId",
          "type": "bytes4"
        }
      ],
      "name": "supportsInterface",
      "outputs": [
        {
          "internalType": "bool",
          "name": "",
          "type": "bool"
        }
      ],
      "stateMutability": "view",
      "type": "function"
    },
    {
      "inputs": [],
      "name": "unpause",
      "outputs": [],
      "stateMutability": "nonpayable",
      "type": "function"
    },
    {
      "inputs": [
        {
          "internalType": "address",
          "name": "newImplementation",
          "type": "address"
        }
      ],
      "name": "upgradeTo",
      "outputs": [],
      "stateMutability": "nonpayable",
      "type": "function"
    },
    {
      "inputs": [
        {
          "internalType": "address",
          "name": "newImplementation",
          "type": "address"
        },
        {
          "internalType": "bytes",
          "name": "data",
          "type": "bytes"
        }
      ],
      "name": "upgradeToAndCall",
      "outputs": [],
      "stateMutability": "payable",
      "type": "function"
    },
    {
      "inputs": [
        {
          "internalType": "address",
          "name": "provider",
          "type": "address"
        },
        {
          "internalType": "bool",
          "name": "whitelisted",
          "type": "bool"
        }
      ],
      "name": "whitelistAddress",
      "outputs": [],
      "stateMutability": "nonpayable",
      "type": "function"
    }
  ],
  "bytecode": "0x60c0604052306080523480156200001557600080fd5b5060405162001acd38038062001acd833981016040819052620000389162000197565b806001600160a01b038116620000bb5760405162461bcd60e51b815260206004820152603660248201527f506f6c696379506f6f6c436f6d706f6e656e743a20706f6c696379506f6f6c2060448201527f63616e6e6f74206265207a65726f20616464726573730000000000000000000060648201526084015b60405180910390fd5b620000c5620000d8565b6001600160a01b031660a05250620001c9565b600054610100900460ff1615620001425760405162461bcd60e51b815260206004820152602760248201527f496e697469616c697a61626c653a20636f6e747261637420697320696e697469604482015266616c697a696e6760c81b6064820152608401620000b2565b60005460ff908116101562000195576000805460ff191660ff9081179091556040519081527f7f26b83ff96e1f2b6a682f133852f6798a09c465da95921460cefb38474024989060200160405180910390a15b565b600060208284031215620001aa57600080fd5b81516001600160a01b0381168114620001c257600080fd5b9392505050565b60805160a051611898620002356000396000818161025f015281816105a60152818161094e01528181610a7801528181610c0701528181610cf4015261102e015260008181610472015281816104bb015281816106b8015281816106f8015261078701526118986000f3fe60806040526004361061011f5760003560e01c80635b494dd5116100a05780638456cb59116100645780638456cb591461038a578063aad4148c1461039f578063b9a45aac146103d3578063e5a6b10f146103f3578063f67b2bad1461040857600080fd5b80635b494dd5146102bf5780635c975abb146102f35780635fcdca371461030b5780637ed5acfa146103485780638129fc1c1461037557600080fd5b8063468a8c9f116100e7578063468a8c9f146101e05780634a47a3e01461021c5780634d15eb03146102505780634f1ef2861461029757806352d1902d146102aa57600080fd5b806301ffc9a71461012457806324ea54f4146101595780633659cfe61461018957806337ee20dd146101ab5780633f4ba83a146101cb575b600080fd5b34801561013057600080fd5b5061014461013f366004611469565b61043c565b60405190151581526020015b60405180910390f35b34801561016557600080fd5b5061017b60008051602061184383398151915281565b604051908152602001610150565b34801561019557600080fd5b506101a96101a43660046114a8565b610468565b005b3480156101b757600080fd5b506101446101c63660046114c5565b610550565b3480156101d757600080fd5b506101a9610574565b3480156101ec57600080fd5b5060c9546040805164ffffffffff831681526501000000000090920466ffffffffffffff16602083015201610150565b34801561022857600080fd5b5061017b7fa82e22387fca439f316d78ca566f383218ab8ae1b3e830178c9c82cbd16749c081565b34801561025c57600080fd5b507f00000000000000000000000000000000000000000000000000000000000000005b6040516001600160a01b039091168152602001610150565b6101a96102a536600461151c565b6106ae565b3480156102b657600080fd5b5061017b61077a565b3480156102cb57600080fd5b5061017b7f5ec196419322369c6bac572d883f4d990ae5ec82f7d93cdf89b85dbb05b63c2781565b3480156102ff57600080fd5b5060975460ff16610144565b34801561031757600080fd5b506101446103263660046115e0565b506001600160a01b0316600090815260fb602052604090205460ff1692915050565b34801561035457600080fd5b5061035f6201518081565b60405164ffffffffff9091168152602001610150565b34801561038157600080fd5b506101a961082d565b34801561039657600080fd5b506101a961093d565b3480156103ab57600080fd5b5061017b7fb494869573b0a0ce9caac5394e1d0d255d146ec7e2d30d643a4e1d78980f323581565b3480156103df57600080fd5b506101a96103ee366004611631565b610a55565b3480156103ff57600080fd5b5061027f610c03565b34801561041457600080fd5b5061017b7fbf372ca3ebecfe59ac256f17697941bbe63302aced610e8b0e3646f743c7beb281565b600061044782610c8c565b8061046257506001600160e01b03198216633411f57560e11b145b92915050565b6001600160a01b037f00000000000000000000000000000000000000000000000000000000000000001630036104b95760405162461bcd60e51b81526004016104b09061166f565b60405180910390fd5b7f00000000000000000000000000000000000000000000000000000000000000006001600160a01b03166105026000805160206117fc833981519152546001600160a01b031690565b6001600160a01b0316146105285760405162461bcd60e51b81526004016104b0906116bb565b61053181610cc2565b6040805160008082526020820190925261054d91839190610df9565b50565b6001600160a01b038216600090815260fb602052604090205460ff165b9392505050565b6000805160206118438339815191527fbf372ca3ebecfe59ac256f17697941bbe63302aced610e8b0e3646f743c7beb27f00000000000000000000000000000000000000000000000000000000000000006001600160a01b03166371907f176040518163ffffffff1660e01b8152600401602060405180830381865afa158015610602573d6000803e3d6000fd5b505050506040513d601f19601f820116820180604052508101906106269190611707565b60408051632b1cff1f60e01b815230600482015260248101859052604481018490523360648201526001608482015290516001600160a01b039290921691632b1cff1f9160a480820192600092909190829003018186803b15801561068a57600080fd5b505afa15801561069e573d6000803e3d6000fd5b505050506106aa610f64565b5050565b6001600160a01b037f00000000000000000000000000000000000000000000000000000000000000001630036106f65760405162461bcd60e51b81526004016104b09061166f565b7f00000000000000000000000000000000000000000000000000000000000000006001600160a01b031661073f6000805160206117fc833981519152546001600160a01b031690565b6001600160a01b0316146107655760405162461bcd60e51b81526004016104b0906116bb565b61076e82610cc2565b6106aa82826001610df9565b6000306001600160a01b037f0000000000000000000000000000000000000000000000000000000000000000161461081a5760405162461bcd60e51b815260206004820152603860248201527f555550535570677261646561626c653a206d757374206e6f742062652063616c60448201527f6c6564207468726f7567682064656c656761746563616c6c000000000000000060648201526084016104b0565b506000805160206117fc83398151915290565b600054610100900460ff161580801561084d5750600054600160ff909116105b806108675750303b158015610867575060005460ff166001145b6108ca5760405162461bcd60e51b815260206004820152602e60248201527f496e697469616c697a61626c653a20636f6e747261637420697320616c72656160448201526d191e481a5b9a5d1a585b1a5e995960921b60648201526084016104b0565b6000805460ff1916600117905580156108ed576000805461ff0019166101001790555b6108f5610fb6565b801561054d576000805461ff0019169055604051600181527f7f26b83ff96e1f2b6a682f133852f6798a09c465da95921460cefb38474024989060200160405180910390a150565b6000805160206118438339815191527f00000000000000000000000000000000000000000000000000000000000000006001600160a01b03166371907f176040518163ffffffff1660e01b8152600401602060405180830381865afa1580156109aa573d6000803e3d6000fd5b505050506040513d601f19601f820116820180604052508101906109ce9190611707565b6001600160a01b0316635ff57d2030833360405160e085901b6001600160e01b03191681526001600160a01b039384166004820152602481019290925290911660448201526001606482015260840160006040518083038186803b158015610a3557600080fd5b505afa158015610a49573d6000803e3d6000fd5b5050505061054d610fef565b7fb494869573b0a0ce9caac5394e1d0d255d146ec7e2d30d643a4e1d78980f32357f00000000000000000000000000000000000000000000000000000000000000006001600160a01b03166371907f176040518163ffffffff1660e01b8152600401602060405180830381865afa158015610ad4573d6000803e3d6000fd5b505050506040513d601f19601f82011682018060405250810190610af89190611707565b6001600160a01b0316635ff57d2030833360405160e085901b6001600160e01b03191681526001600160a01b039384166004820152602481019290925290911660448201526000606482015260840160006040518083038186803b158015610b5f57600080fd5b505afa158015610b73573d6000803e3d6000fd5b5050506001600160a01b038416600090815260fb602052604090205460ff161515831515149050610bfe576001600160a01b038316600081815260fb6020908152604091829020805460ff19168615159081179091558251938452908301527f8ef34cf5cfaa6ce2f80f1ba2912749c912a8b07c4fb8e9949e928e7cb592918f910160405180910390a15b505050565b60007f00000000000000000000000000000000000000000000000000000000000000006001600160a01b031663e5a6b10f6040518163ffffffff1660e01b8152600401602060405180830381865afa158015610c63573d6000803e3d6000fd5b505050506040513d601f19601f82011682018060405250810190610c879190611707565b905090565b60006001600160e01b031982166301ffc9a760e01b148061046257506001600160e01b03198216634d15eb0360e01b1492915050565b6000805160206118438339815191527fbf372ca3ebecfe59ac256f17697941bbe63302aced610e8b0e3646f743c7beb27f00000000000000000000000000000000000000000000000000000000000000006001600160a01b03166371907f176040518163ffffffff1660e01b8152600401602060405180830381865afa158015610d50573d6000803e3d6000fd5b505050506040513d601f19601f82011682018060405250810190610d749190611707565b60408051632b1cff1f60e01b815230600482015260248101859052604481018490523360648201526001608482015290516001600160a01b039290921691632b1cff1f9160a480820192600092909190829003018186803b158015610dd857600080fd5b505afa158015610dec573d6000803e3d6000fd5b50505050610bfe8361102c565b7f4910fdfa16fed3260ed0e7147f7cc6da11a60208b5b9406d12a635614ffd91435460ff1615610e2c57610bfe8361111d565b826001600160a01b03166352d1902d6040518163ffffffff1660e01b8152600401602060405180830381865afa925050508015610e86575060408051601f3d908101601f19168201909252610e8391810190611724565b60015b610ee95760405162461bcd60e51b815260206004820152602e60248201527f45524331393637557067726164653a206e657720696d706c656d656e7461746960448201526d6f6e206973206e6f74205555505360901b60648201526084016104b0565b6000805160206117fc8339815191528114610f585760405162461bcd60e51b815260206004820152602960248201527f45524331393637557067726164653a20756e737570706f727465642070726f786044820152681a58589b195555525160ba1b60648201526084016104b0565b50610bfe8383836111b9565b610f6c6111e4565b6097805460ff191690557f5db9ee0a495bf2e6ff9c91a7834c1ba4fdd244a5e8aa4e537bd38aeae4b073aa335b6040516001600160a01b03909116815260200160405180910390a1565b600054610100900460ff16610fdd5760405162461bcd60e51b81526004016104b09061173d565b610fe561122d565b610fed611254565b565b610ff7611283565b6097805460ff191660011790557f62e78cea01bee320cd4e420270b5ea74000d11b0c9f74754ebdbfc544b05a258610f993390565b7f00000000000000000000000000000000000000000000000000000000000000006001600160a01b0316816001600160a01b0316634d15eb036040518163ffffffff1660e01b8152600401602060405180830381865afa158015611094573d6000803e3d6000fd5b505050506040513d601f19601f820116820180604052508101906110b89190611707565b6001600160a01b03161461054d5760405162461bcd60e51b815260206004820152602660248201527f43616e27742075706772616465206368616e67696e672074686520506f6c696360448201526579506f6f6c2160d01b60648201526084016104b0565b6001600160a01b0381163b61118a5760405162461bcd60e51b815260206004820152602d60248201527f455243313936373a206e657720696d706c656d656e746174696f6e206973206e60448201526c1bdd08184818dbdb9d1c9858dd609a1b60648201526084016104b0565b6000805160206117fc83398151915280546001600160a01b0319166001600160a01b0392909216919091179055565b6111c2836112c9565b6000825111806111cf5750805b15610bfe576111de8383611309565b50505050565b60975460ff16610fed5760405162461bcd60e51b815260206004820152601460248201527314185d5cd8589b194e881b9bdd081c185d5cd95960621b60448201526064016104b0565b600054610100900460ff16610fed5760405162461bcd60e51b81526004016104b09061173d565b600054610100900460ff1661127b5760405162461bcd60e51b81526004016104b09061173d565b610fed6113fd565b60975460ff1615610fed5760405162461bcd60e51b815260206004820152601060248201526f14185d5cd8589b194e881c185d5cd95960821b60448201526064016104b0565b6112d28161111d565b6040516001600160a01b038216907fbc7cd75a20ee27fd9adebab32041f755214dbc6bffa90cc0225b39da2e5c2d3b90600090a250565b60606001600160a01b0383163b6113715760405162461bcd60e51b815260206004820152602660248201527f416464726573733a2064656c65676174652063616c6c20746f206e6f6e2d636f6044820152651b9d1c9858dd60d21b60648201526084016104b0565b600080846001600160a01b03168460405161138c91906117ac565b600060405180830381855af49150503d80600081146113c7576040519150601f19603f3d011682016040523d82523d6000602084013e6113cc565b606091505b50915091506113f4828260405180606001604052806027815260200161181c60279139611430565b95945050505050565b600054610100900460ff166114245760405162461bcd60e51b81526004016104b09061173d565b6097805460ff19169055565b6060831561143f57508161056d565b82511561144f5782518084602001fd5b8160405162461bcd60e51b81526004016104b091906117c8565b60006020828403121561147b57600080fd5b81356001600160e01b03198116811461056d57600080fd5b6001600160a01b038116811461054d57600080fd5b6000602082840312156114ba57600080fd5b813561056d81611493565b6000806000606084860312156114da57600080fd5b83356114e581611493565b925060208401356114f581611493565b929592945050506040919091013590565b634e487b7160e01b600052604160045260246000fd5b6000806040838503121561152f57600080fd5b823561153a81611493565b9150602083013567ffffffffffffffff8082111561155757600080fd5b818501915085601f83011261156b57600080fd5b81358181111561157d5761157d611506565b604051601f8201601f19908116603f011681019083821181831017156115a5576115a5611506565b816040528281528860208487010111156115be57600080fd5b8260208601602083013760006020848301015280955050505050509250929050565b600080600080608085870312156115f657600080fd5b843561160181611493565b9350602085013561161181611493565b9250604085013561162181611493565b9396929550929360600135925050565b6000806040838503121561164457600080fd5b823561164f81611493565b91506020830135801515811461166457600080fd5b809150509250929050565b6020808252602c908201527f46756e6374696f6e206d7573742062652063616c6c6564207468726f7567682060408201526b19195b1959d85d1958d85b1b60a21b606082015260800190565b6020808252602c908201527f46756e6374696f6e206d7573742062652063616c6c6564207468726f7567682060408201526b6163746976652070726f787960a01b606082015260800190565b60006020828403121561171957600080fd5b815161056d81611493565b60006020828403121561173657600080fd5b5051919050565b6020808252602b908201527f496e697469616c697a61626c653a20636f6e7472616374206973206e6f74206960408201526a6e697469616c697a696e6760a81b606082015260800190565b60005b838110156117a357818101518382015260200161178b565b50506000910152565b600082516117be818460208701611788565b9190910192915050565b60208152600082518060208401526117e7816040850160208701611788565b601f01601f1916919091016040019291505056fe360894a13ba1a3210667c828492db98dca3e2076cc3735a920a3ca505d382bbc416464726573733a206c6f772d6c6576656c2064656c65676174652063616c6c206661696c656455435dd261a4b9b3364963f7738a7a662ad9c84396d64be3365284bb7f0a5041a2646970667358221220f7ed9332d11c18419a12719d24f2df48604b013f26abc7013c359a104deab22764736f6c63430008100033",
  "linkReferences": {},
  "deployedLinkReferences": {}
}