{
  "_format": "hh-sol-artifact-1",
  "contractName": "PremiumsAccount",
  "sourceName": "contracts/PremiumsAccount.sol",
  "abi": [
    {
      "inputs": [
        {
          "internalType": "contract IPolicyPool",
          "name": "policyPool_",
          "type": "address"
        },
        {
          "internalType": "contract IEToken",
          "name": "juniorEtk_",
          "type": "address"
        },
        {
          "internalType": "contract IEToken",
          "name": "seniorEtk_",
          "type": "address"
        }
      ],
      "stateMutability": "nonpayable",
      "type": "constructor"
    },
    {
      "anonymous": false,
      "inputs": [
        {
          "indexed": false,
          "internalType": "address",
          "name": "previousAdmin",
          "type": "address"
        },
        {
          "indexed": false,
          "internalType": "address",
          "name": "newAdmin",
          "type": "address"
        }
      ],
      "name": "AdminChanged",
      "type": "event"
    },
    {
      "anonymous": false,
      "inputs": [
        {
          "indexed": true,
          "internalType": "address",
          "name": "beacon",
          "type": "address"
        }
      ],
      "name": "BeaconUpgraded",
      "type": "event"
    },
    {
      "anonymous": false,
      "inputs": [
        {
          "indexed": true,
          "internalType": "enum IAccessManager.GovernanceActions",
          "name": "action",
          "type": "uint8"
        },
        {
          "indexed": false,
          "internalType": "address",
          "name": "value",
          "type": "address"
        }
      ],
      "name": "ComponentChanged",
      "type": "event"
    },
    {
      "anonymous": false,
      "inputs": [
        {
          "indexed": true,
          "internalType": "enum IAccessManager.GovernanceActions",
          "name": "action",
          "type": "uint8"
        },
        {
          "indexed": false,
          "internalType": "uint256",
          "name": "value",
          "type": "uint256"
        }
      ],
      "name": "GovernanceAction",
      "type": "event"
    },
    {
      "anonymous": false,
      "inputs": [
        {
          "indexed": false,
          "internalType": "uint8",
          "name": "version",
          "type": "uint8"
        }
      ],
      "name": "Initialized",
      "type": "event"
    },
    {
      "anonymous": false,
      "inputs": [
        {
          "indexed": false,
          "internalType": "address",
          "name": "account",
          "type": "address"
        }
      ],
      "name": "Paused",
      "type": "event"
    },
    {
      "anonymous": false,
      "inputs": [
        {
          "indexed": false,
          "internalType": "address",
          "name": "account",
          "type": "address"
        }
      ],
      "name": "Unpaused",
      "type": "event"
    },
    {
      "anonymous": false,
      "inputs": [
        {
          "indexed": true,
          "internalType": "address",
          "name": "implementation",
          "type": "address"
        }
      ],
      "name": "Upgraded",
      "type": "event"
    },
    {
      "anonymous": false,
      "inputs": [
        {
          "indexed": false,
          "internalType": "bool",
          "name": "moneyIn",
          "type": "bool"
        },
        {
          "indexed": false,
          "internalType": "uint256",
          "name": "value",
          "type": "uint256"
        }
      ],
      "name": "WonPremiumsInOut",
      "type": "event"
    },
    {
      "inputs": [],
      "name": "GUARDIAN_ROLE",
      "outputs": [
        {
          "internalType": "bytes32",
          "name": "",
          "type": "bytes32"
        }
      ],
      "stateMutability": "view",
      "type": "function"
    },
    {
      "inputs": [],
      "name": "LEVEL1_ROLE",
      "outputs": [
        {
          "internalType": "bytes32",
          "name": "",
          "type": "bytes32"
        }
      ],
      "stateMutability": "view",
      "type": "function"
    },
    {
      "inputs": [],
      "name": "LEVEL2_ROLE",
      "outputs": [
        {
          "internalType": "bytes32",
          "name": "",
          "type": "bytes32"
        }
      ],
      "stateMutability": "view",
      "type": "function"
    },
    {
      "inputs": [],
      "name": "LEVEL3_ROLE",
      "outputs": [
        {
          "internalType": "bytes32",
          "name": "",
          "type": "bytes32"
        }
      ],
      "stateMutability": "view",
      "type": "function"
    },
    {
      "inputs": [],
      "name": "TWEAK_EXPIRATION",
      "outputs": [
        {
          "internalType": "uint40",
          "name": "",
          "type": "uint40"
        }
      ],
      "stateMutability": "view",
      "type": "function"
    },
    {
      "inputs": [],
      "name": "WITHDRAW_WON_PREMIUMS_ROLE",
      "outputs": [
        {
          "internalType": "bytes32",
          "name": "",
          "type": "bytes32"
        }
      ],
      "stateMutability": "view",
      "type": "function"
    },
    {
      "inputs": [],
      "name": "activePurePremiums",
      "outputs": [
        {
          "internalType": "uint256",
          "name": "",
          "type": "uint256"
        }
      ],
      "stateMutability": "view",
      "type": "function"
    },
    {
      "inputs": [],
      "name": "assetManager",
      "outputs": [
        {
          "internalType": "contract IAssetManager",
          "name": "",
          "type": "address"
        }
      ],
      "stateMutability": "view",
      "type": "function"
    },
    {
      "inputs": [],
      "name": "borrowedActivePP",
      "outputs": [
        {
          "internalType": "uint256",
          "name": "",
          "type": "uint256"
        }
      ],
      "stateMutability": "view",
      "type": "function"
    },
    {
      "inputs": [],
      "name": "checkpoint",
      "outputs": [],
      "stateMutability": "nonpayable",
      "type": "function"
    },
    {
      "inputs": [],
      "name": "currency",
      "outputs": [
        {
          "internalType": "contract IERC20Metadata",
          "name": "",
          "type": "address"
        }
      ],
      "stateMutability": "view",
      "type": "function"
    },
    {
      "inputs": [],
      "name": "deficitRatio",
      "outputs": [
        {
          "internalType": "uint256",
          "name": "",
          "type": "uint256"
        }
      ],
      "stateMutability": "view",
      "type": "function"
    },
    {
      "inputs": [
        {
          "internalType": "bytes",
          "name": "functionCall",
          "type": "bytes"
        }
      ],
      "name": "forwardToAssetManager",
      "outputs": [
        {
          "internalType": "bytes",
          "name": "",
          "type": "bytes"
        }
      ],
      "stateMutability": "nonpayable",
      "type": "function"
    },
    {
      "inputs": [],
      "name": "initialize",
      "outputs": [],
      "stateMutability": "nonpayable",
      "type": "function"
    },
    {
      "inputs": [],
      "name": "juniorEtk",
      "outputs": [
        {
          "internalType": "contract IEToken",
          "name": "",
          "type": "address"
        }
      ],
      "stateMutability": "view",
      "type": "function"
    },
    {
      "inputs": [],
      "name": "lastTweak",
      "outputs": [
        {
          "internalType": "uint40",
          "name": "",
          "type": "uint40"
        },
        {
          "internalType": "uint56",
          "name": "",
          "type": "uint56"
        }
      ],
      "stateMutability": "view",
      "type": "function"
    },
    {
      "inputs": [],
      "name": "pause",
      "outputs": [],
      "stateMutability": "nonpayable",
      "type": "function"
    },
    {
      "inputs": [],
      "name": "paused",
      "outputs": [
        {
          "internalType": "bool",
          "name": "",
          "type": "bool"
        }
      ],
      "stateMutability": "view",
      "type": "function"
    },
    {
      "inputs": [
        {
          "components": [
            {
              "internalType": "uint256",
              "name": "id",
              "type": "uint256"
            },
            {
              "internalType": "uint256",
              "name": "payout",
              "type": "uint256"
            },
            {
              "internalType": "uint256",
              "name": "premium",
              "type": "uint256"
            },
            {
              "internalType": "uint256",
              "name": "jrScr",
              "type": "uint256"
            },
            {
              "internalType": "uint256",
              "name": "srScr",
              "type": "uint256"
            },
            {
              "internalType": "uint256",
              "name": "lossProb",
              "type": "uint256"
            },
            {
              "internalType": "uint256",
              "name": "purePremium",
              "type": "uint256"
            },
            {
              "internalType": "uint256",
              "name": "ensuroCommission",
              "type": "uint256"
            },
            {
              "internalType": "uint256",
              "name": "partnerCommission",
              "type": "uint256"
            },
            {
              "internalType": "uint256",
              "name": "jrCoc",
              "type": "uint256"
            },
            {
              "internalType": "uint256",
              "name": "srCoc",
              "type": "uint256"
            },
            {
              "internalType": "contract IRiskModule",
              "name": "riskModule",
              "type": "address"
            },
            {
              "internalType": "uint40",
              "name": "start",
              "type": "uint40"
            },
            {
              "internalType": "uint40",
              "name": "expiration",
              "type": "uint40"
            }
          ],
          "internalType": "struct Policy.PolicyData",
          "name": "policy",
          "type": "tuple"
        }
      ],
      "name": "policyCreated",
      "outputs": [],
      "stateMutability": "nonpayable",
      "type": "function"
    },
    {
      "inputs": [
        {
          "components": [
            {
              "internalType": "uint256",
              "name": "id",
              "type": "uint256"
            },
            {
              "internalType": "uint256",
              "name": "payout",
              "type": "uint256"
            },
            {
              "internalType": "uint256",
              "name": "premium",
              "type": "uint256"
            },
            {
              "internalType": "uint256",
              "name": "jrScr",
              "type": "uint256"
            },
            {
              "internalType": "uint256",
              "name": "srScr",
              "type": "uint256"
            },
            {
              "internalType": "uint256",
              "name": "lossProb",
              "type": "uint256"
            },
            {
              "internalType": "uint256",
              "name": "purePremium",
              "type": "uint256"
            },
            {
              "internalType": "uint256",
              "name": "ensuroCommission",
              "type": "uint256"
            },
            {
              "internalType": "uint256",
              "name": "partnerCommission",
              "type": "uint256"
            },
            {
              "internalType": "uint256",
              "name": "jrCoc",
              "type": "uint256"
            },
            {
              "internalType": "uint256",
              "name": "srCoc",
              "type": "uint256"
            },
            {
              "internalType": "contract IRiskModule",
              "name": "riskModule",
              "type": "address"
            },
            {
              "internalType": "uint40",
              "name": "start",
              "type": "uint40"
            },
            {
              "internalType": "uint40",
              "name": "expiration",
              "type": "uint40"
            }
          ],
          "internalType": "struct Policy.PolicyData",
          "name": "policy",
          "type": "tuple"
        }
      ],
      "name": "policyExpired",
      "outputs": [],
      "stateMutability": "nonpayable",
      "type": "function"
    },
    {
      "inputs": [],
      "name": "policyPool",
      "outputs": [
        {
          "internalType": "contract IPolicyPool",
          "name": "",
          "type": "address"
        }
      ],
      "stateMutability": "view",
      "type": "function"
    },
    {
      "inputs": [
        {
          "internalType": "address",
          "name": "policyHolder",
          "type": "address"
        },
        {
          "components": [
            {
              "internalType": "uint256",
              "name": "id",
              "type": "uint256"
            },
            {
              "internalType": "uint256",
              "name": "payout",
              "type": "uint256"
            },
            {
              "internalType": "uint256",
              "name": "premium",
              "type": "uint256"
            },
            {
              "internalType": "uint256",
              "name": "jrScr",
              "type": "uint256"
            },
            {
              "internalType": "uint256",
              "name": "srScr",
              "type": "uint256"
            },
            {
              "internalType": "uint256",
              "name": "lossProb",
              "type": "uint256"
            },
            {
              "internalType": "uint256",
              "name": "purePremium",
              "type": "uint256"
            },
            {
              "internalType": "uint256",
              "name": "ensuroCommission",
              "type": "uint256"
            },
            {
              "internalType": "uint256",
              "name": "partnerCommission",
              "type": "uint256"
            },
            {
              "internalType": "uint256",
              "name": "jrCoc",
              "type": "uint256"
            },
            {
              "internalType": "uint256",
              "name": "srCoc",
              "type": "uint256"
            },
            {
              "internalType": "contract IRiskModule",
              "name": "riskModule",
              "type": "address"
            },
            {
              "internalType": "uint40",
              "name": "start",
              "type": "uint40"
            },
            {
              "internalType": "uint40",
              "name": "expiration",
              "type": "uint40"
            }
          ],
          "internalType": "struct Policy.PolicyData",
          "name": "policy",
          "type": "tuple"
        },
        {
          "internalType": "uint256",
          "name": "payout",
          "type": "uint256"
        }
      ],
      "name": "policyResolvedWithPayout",
      "outputs": [],
      "stateMutability": "nonpayable",
      "type": "function"
    },
    {
      "inputs": [],
      "name": "proxiableUUID",
      "outputs": [
        {
          "internalType": "bytes32",
          "name": "",
          "type": "bytes32"
        }
      ],
      "stateMutability": "view",
      "type": "function"
    },
    {
      "inputs": [],
      "name": "purePremiums",
      "outputs": [
        {
          "internalType": "uint256",
          "name": "",
          "type": "uint256"
        }
      ],
      "stateMutability": "view",
      "type": "function"
    },
    {
      "inputs": [],
      "name": "rebalance",
      "outputs": [],
      "stateMutability": "nonpayable",
      "type": "function"
    },
    {
      "inputs": [
        {
          "internalType": "uint256",
          "name": "amount",
          "type": "uint256"
        }
      ],
      "name": "receiveGrant",
      "outputs": [],
      "stateMutability": "nonpayable",
      "type": "function"
    },
    {
      "inputs": [],
      "name": "recordEarnings",
      "outputs": [],
      "stateMutability": "nonpayable",
      "type": "function"
    },
    {
      "inputs": [],
      "name": "seniorEtk",
      "outputs": [
        {
          "internalType": "contract IEToken",
          "name": "",
          "type": "address"
        }
      ],
      "stateMutability": "view",
      "type": "function"
    },
    {
      "inputs": [
        {
          "internalType": "contract IAssetManager",
          "name": "newAM",
          "type": "address"
        },
        {
          "internalType": "bool",
          "name": "force",
          "type": "bool"
        }
      ],
      "name": "setAssetManager",
      "outputs": [],
      "stateMutability": "nonpayable",
      "type": "function"
    },
    {
      "inputs": [
        {
          "internalType": "uint256",
          "name": "newRatio",
          "type": "uint256"
        },
        {
          "internalType": "bool",
          "name": "adjustment",
          "type": "bool"
        }
      ],
      "name": "setDeficitRatio",
      "outputs": [],
      "stateMutability": "nonpayable",
      "type": "function"
    },
    {
      "inputs": [
        {
          "internalType": "bytes4",
          "name": "interfaceId",
          "type": "bytes4"
        }
      ],
      "name": "supportsInterface",
      "outputs": [
        {
          "internalType": "bool",
          "name": "",
          "type": "bool"
        }
      ],
      "stateMutability": "view",
      "type": "function"
    },
    {
      "inputs": [],
      "name": "surplus",
      "outputs": [
        {
          "internalType": "int256",
          "name": "",
          "type": "int256"
        }
      ],
      "stateMutability": "view",
      "type": "function"
    },
    {
      "inputs": [],
      "name": "unpause",
      "outputs": [],
      "stateMutability": "nonpayable",
      "type": "function"
    },
    {
      "inputs": [
        {
          "internalType": "address",
          "name": "newImplementation",
          "type": "address"
        }
      ],
      "name": "upgradeTo",
      "outputs": [],
      "stateMutability": "nonpayable",
      "type": "function"
    },
    {
      "inputs": [
        {
          "internalType": "address",
          "name": "newImplementation",
          "type": "address"
        },
        {
          "internalType": "bytes",
          "name": "data",
          "type": "bytes"
        }
      ],
      "name": "upgradeToAndCall",
      "outputs": [],
      "stateMutability": "payable",
      "type": "function"
    },
    {
      "inputs": [
        {
          "internalType": "uint256",
          "name": "amount",
          "type": "uint256"
        },
        {
          "internalType": "address",
          "name": "destination",
          "type": "address"
        }
      ],
      "name": "withdrawWonPremiums",
      "outputs": [
        {
          "internalType": "uint256",
          "name": "",
          "type": "uint256"
        }
      ],
      "stateMutability": "nonpayable",
      "type": "function"
    },
    {
      "inputs": [],
      "name": "wonPurePremiums",
      "outputs": [
        {
          "internalType": "uint256",
          "name": "",
          "type": "uint256"
        }
      ],
      "stateMutability": "view",
      "type": "function"
    }
  ],
  "bytecode": "0x610120604052306080523480156200001657600080fd5b5060405162004944380380620049448339810160408190526200003991620002bc565b82806001600160a01b038116620000bd5760405162461bcd60e51b815260206004820152603660248201527f506f6c696379506f6f6c436f6d706f6e656e743a20706f6c696379506f6f6c2060448201527f63616e6e6f74206265207a65726f20616464726573730000000000000000000060648201526084015b60405180910390fd5b620000c7620001e4565b806001600160a01b031660a0816001600160a01b031681525050506002816001600160a01b031663e5a6b10f6040518163ffffffff1660e01b8152600401602060405180830381865afa15801562000123573d6000803e3d6000fd5b505050506040513d601f19601f8201168201806040525081019062000149919062000310565b6001600160a01b031663313ce5676040518163ffffffff1660e01b8152600401602060405180830381865afa15801562000187573d6000803e3d6000fd5b505050506040513d601f19601f82011682018060405250810190620001ad919062000337565b620001b9919062000372565b620001c690600a620004a2565b60c052506001600160a01b0391821660e052166101005250620004b3565b600054610100900460ff16156200024e5760405162461bcd60e51b815260206004820152602760248201527f496e697469616c697a61626c653a20636f6e747261637420697320696e697469604482015266616c697a696e6760c81b6064820152608401620000b4565b60005460ff9081161015620002a1576000805460ff191660ff9081179091556040519081527f7f26b83ff96e1f2b6a682f133852f6798a09c465da95921460cefb38474024989060200160405180910390a15b565b6001600160a01b0381168114620002b957600080fd5b50565b600080600060608486031215620002d257600080fd5b8351620002df81620002a3565b6020850151909350620002f281620002a3565b60408501519092506200030581620002a3565b809150509250925092565b6000602082840312156200032357600080fd5b81516200033081620002a3565b9392505050565b6000602082840312156200034a57600080fd5b815160ff811681146200033057600080fd5b634e487b7160e01b600052601160045260246000fd5b600060ff8316806200039457634e487b7160e01b600052601260045260246000fd5b8060ff84160491505092915050565b600181815b80851115620003e4578160001904821115620003c857620003c86200035c565b80851615620003d657918102915b93841c9390800290620003a8565b509250929050565b600082620003fd575060016200049c565b816200040c575060006200049c565b8160018114620004255760028114620004305762000450565b60019150506200049c565b60ff8411156200044457620004446200035c565b50506001821b6200049c565b5060208310610133831016604e8410600b841016171562000475575081810a6200049c565b620004818383620003a3565b80600019048211156200049857620004986200035c565b0290505b92915050565b60006200033060ff841683620003ec565b60805160a05160c05160e051610100516143266200061e600039600081816104ef015281816112a9015281816112dc0152818161170e0152818161174101528181611ca401528181612154015281816121870152818161246101528181612a3e01528181612f540152612ff001526000818161047001528181610e3701528181611305015281816113380152818161176a0152818161179d01528181611c06015281816121b0015281816121e3015281816123950152818161297f01528181612e1f0152612ebb01526000818161240e015281816124d2015281816126c10152612bd00152600081816103b70152818161074a0152818161098101528181610bec015281816111320152818161121f015281816113fb01528181611653015281816117f601528181611b9101528181611d3d01528181611e5801526136e0015260008181610883015281816108cc01528181610b0701528181610b470152610e9f01526143266000f3fe60806040526004361061021a5760003560e01c80635b494dd51161012357806394217ad1116100ab578063d80359f11161006f578063d80359f11461066d578063e3638ea31461068d578063e5a6b10f146106ad578063e823584a146106c2578063f67b2bad146106d757600080fd5b806394217ad1146105d35780639d8c5ee7146105f8578063a0ce58b814610618578063c2c4c5c114610638578063c7a9c70d1461064d57600080fd5b80637ed5acfa116100f25780637ed5acfa146105285780638129fc1c1461055557806381ced71f1461056a5780638456cb591461058a5780638ca23bc91461059f57600080fd5b80635b494dd5146104945780635c975abb146104c85780637b83037b146104e05780637d7c2a1c1461051357600080fd5b80634863c8b0116101a65780634f1ef286116101755780634f1ef2861461040457806350093f041461041757806352d1902d14610437578063536c9a431461044c578063536ebbfc1461046157600080fd5b80634863c8b01461035f5780634a47a3e0146103745780634d15eb03146103a85780634eb978a4146103ef57600080fd5b806324ea54f4116101ed57806324ea54f4146102b757806326ccbd22146102d95780633659cfe6146102ee5780633f4ba83a14610310578063468a8c9f1461032557600080fd5b806301ffc9a71461021f57806313888565146102545780631a548a27146102745780631e9c46581461028a575b600080fd5b34801561022b57600080fd5b5061023f61023a366004613abb565b6106f9565b60405190151581526020015b60405180910390f35b34801561026057600080fd5b5061012e545b60405190815260200161024b565b34801561028057600080fd5b5061012d54610266565b34801561029657600080fd5b506102aa6102a5366004613bb2565b610725565b60405161024b9190613c37565b3480156102c357600080fd5b506102666000805160206142d183398151915281565b3480156102e557600080fd5b50610266610860565b3480156102fa57600080fd5b5061030e610309366004613c5f565b610879565b005b34801561031c57600080fd5b5061030e610961565b34801561033157600080fd5b5060c9546040805164ffffffffff83168152600160281b90920466ffffffffffffff1660208301520161024b565b34801561036b57600080fd5b50610266610a71565b34801561038057600080fd5b506102667fa82e22387fca439f316d78ca566f383218ab8ae1b3e830178c9c82cbd16749c081565b3480156103b457600080fd5b507f00000000000000000000000000000000000000000000000000000000000000005b6040516001600160a01b03909116815260200161024b565b3480156103fb57600080fd5b5061030e610a8d565b61030e610412366004613c7c565b610afd565b34801561042357600080fd5b5061030e610432366004613cda565b610bc9565b34801561044357600080fd5b50610266610e92565b34801561045857600080fd5b50610266610f45565b34801561046d57600080fd5b507f00000000000000000000000000000000000000000000000000000000000000006103d7565b3480156104a057600080fd5b506102667f5ec196419322369c6bac572d883f4d990ae5ec82f7d93cdf89b85dbb05b63c2781565b3480156104d457600080fd5b5060975460ff1661023f565b3480156104ec57600080fd5b507f00000000000000000000000000000000000000000000000000000000000000006103d7565b34801561051f57600080fd5b5061030e610f60565b34801561053457600080fd5b5061053f6201518081565b60405164ffffffffff909116815260200161024b565b34801561056157600080fd5b5061030e610faf565b34801561057657600080fd5b5061030e610585366004613d0a565b6110bf565b34801561059657600080fd5b5061030e611121565b3480156105ab57600080fd5b506102667fa23b11d346b90fc279e0a917152caf41f3c1247b12211b7cbc0e0e3f8b79405781565b3480156105df57600080fd5b5061012f546201000090046001600160a01b03166103d7565b34801561060457600080fd5b5061030e610613366004613e0f565b61121c565b34801561062457600080fd5b50610266610633366004613e50565b6113d6565b34801561064457600080fd5b5061030e611636565b34801561065957600080fd5b5061030e610668366004613e75565b611650565b34801561067957600080fd5b5061030e610688366004613e92565b6117d6565b34801561069957600080fd5b5061030e6106a8366004613e75565b611b8e565b3480156106b957600080fd5b506103d7611d39565b3480156106ce57600080fd5b50610266611dbd565b3480156106e357600080fd5b5061026660008051602061428a83398151915281565b600061070482611ddd565b8061071f57506001600160e01b03198216632dd9c4bb60e21b145b92915050565b60607fa82e22387fca439f316d78ca566f383218ab8ae1b3e830178c9c82cbd16749c07f00000000000000000000000000000000000000000000000000000000000000006001600160a01b03166371907f176040518163ffffffff1660e01b8152600401602060405180830381865afa1580156107a6573d6000803e3d6000fd5b505050506040513d601f19601f820116820180604052508101906107ca9190613ec0565b6001600160a01b0316635ff57d2030833360016040518563ffffffff1660e01b81526004016107fc9493929190613edd565b60006040518083038186803b15801561081457600080fd5b505afa158015610828573d6000803e3d6000fd5b505050506108598361084a61012f546001600160a01b03620100009091041690565b6001600160a01b031690611e13565b9392505050565b600061012e5461012d546108749190613f1d565b905090565b6001600160a01b037f00000000000000000000000000000000000000000000000000000000000000001630036108ca5760405162461bcd60e51b81526004016108c190613f45565b60405180910390fd5b7f00000000000000000000000000000000000000000000000000000000000000006001600160a01b031661091360008051602061426a833981519152546001600160a01b031690565b6001600160a01b0316146109395760405162461bcd60e51b81526004016108c190613f91565b61094281611e38565b6040805160008082526020820190925261095e91839190611f45565b50565b6000805160206142d183398151915260008051602061428a8339815191527f00000000000000000000000000000000000000000000000000000000000000006001600160a01b03166371907f176040518163ffffffff1660e01b8152600401602060405180830381865afa1580156109dd573d6000803e3d6000fd5b505050506040513d601f19601f82011682018060405250810190610a019190613ec0565b6001600160a01b0316632b1cff1f3084843360016040518663ffffffff1660e01b8152600401610a35959493929190613fdd565b60006040518083038186803b158015610a4d57600080fd5b505afa158015610a61573d6000803e3d6000fd5b50505050610a6d6120b0565b5050565b61012f5460009061087490655af3107a40009061ffff16614010565b610a95612102565b6040805160048152602481019091526020810180516001600160e01b03166313ae5e2960e21b179052600090610adf9061084a61012f546001600160a01b03620100009091041690565b905061095e81806020019051810190610af8919061402f565b612148565b6001600160a01b037f0000000000000000000000000000000000000000000000000000000000000000163003610b455760405162461bcd60e51b81526004016108c190613f45565b7f00000000000000000000000000000000000000000000000000000000000000006001600160a01b0316610b8e60008051602061426a833981519152546001600160a01b031690565b6001600160a01b031614610bb45760405162461bcd60e51b81526004016108c190613f91565b610bbd82611e38565b610a6d82826001611f45565b7fa82e22387fca439f316d78ca566f383218ab8ae1b3e830178c9c82cbd16749c07f00000000000000000000000000000000000000000000000000000000000000006001600160a01b03166371907f176040518163ffffffff1660e01b8152600401602060405180830381865afa158015610c48573d6000803e3d6000fd5b505050506040513d601f19601f82011682018060405250810190610c6c9190613ec0565b6001600160a01b0316635ff57d2030833360006040518563ffffffff1660e01b8152600401610c9e9493929190613edd565b60006040518083038186803b158015610cb657600080fd5b505afa158015610cca573d6000803e3d6000fd5b50505050670de0b6b3a7640000831115610cf65760405162461bcd60e51b81526004016108c190614048565b6000610d10610d0b655af3107a40008661408d565b61226c565b905083610d27655af3107a400061ffff8416614010565b14610d865760405162461bcd60e51b815260206004820152602960248201527f56616c69646174696f6e3a206f6e6c7920757020746f203420646563696d616c6044820152681cc8185b1b1bddd95960ba1b60648201526084016108c1565b6000610d91856122d3565b90508380610da257508061012e5412155b610e005760405162461bcd60e51b815260206004820152602960248201527f56616c69646174696f6e3a20737572706c7573206d757374206265203e3d206d604482015268185e1119599a58da5d60ba1b60648201526084016108c1565b61012e54602090821315610e6c5760008261012e54610e1e906140af565b610e289190613f1d565b61012e8490559050610e6681307f00000000000000000000000000000000000000000000000000000000000000006001600160a01b031615156122ed565b60219150505b61012f805461ffff191661ffff8516179055610e8a81876000612557565b505050505050565b6000306001600160a01b037f00000000000000000000000000000000000000000000000000000000000000001614610f325760405162461bcd60e51b815260206004820152603860248201527f555550535570677261646561626c653a206d757374206e6f742062652063616c60448201527f6c6564207468726f7567682064656c656761746563616c6c000000000000000060648201526084016108c1565b5060008051602061426a83398151915290565b60008061012e541215610f585750600090565b5061012e5490565b610f68612102565b6040805160048152602481019091526020810180516001600160e01b0316631f5f0a8760e21b17905261095e9061084a61012f546001600160a01b03620100009091041690565b600054610100900460ff1615808015610fcf5750600054600160ff909116105b80610fe95750303b158015610fe9575060005460ff166001145b61104c5760405162461bcd60e51b815260206004820152602e60248201527f496e697469616c697a61626c653a20636f6e747261637420697320616c72656160448201526d191e481a5b9a5d1a585b1a5e995960921b60648201526084016108c1565b6000805460ff19166001179055801561106f576000805461ff0019166101001790555b6110776125b8565b801561095e576000805461ff0019169055604051600181527f7f26b83ff96e1f2b6a682f133852f6798a09c465da95921460cefb38474024989060200160405180910390a150565b6110c8816125ef565b6040805160018152602081018390527fd60d524f1cae273480bb0a4ddfb992b6ac0b61c8e12ffbe2e4e31463f9e90199910160405180910390a161095e333083611110611d39565b6001600160a01b0316929190612615565b6000805160206142d18339815191527f00000000000000000000000000000000000000000000000000000000000000006001600160a01b03166371907f176040518163ffffffff1660e01b8152600401602060405180830381865afa15801561118e573d6000803e3d6000fd5b505050506040513d601f19601f820116820180604052508101906111b29190613ec0565b6001600160a01b0316635ff57d2030833360016040518563ffffffff1660e01b81526004016111e49493929190613edd565b60006040518083038186803b1580156111fc57600080fd5b505afa158015611210573d6000803e3d6000fd5b5050505061095e612680565b337f00000000000000000000000000000000000000000000000000000000000000006001600160a01b0316146112645760405162461bcd60e51b81526004016108c1906140cb565b61126c612102565b8160c0015161012d6000828254611283919061410c565b909155505060c08201518111611381576000818360c001516112a5919061410c565b90507f00000000000000000000000000000000000000000000000000000000000000006001600160a01b03161561130357611300817f00000000000000000000000000000000000000000000000000000000000000006126bd565b90505b7f00000000000000000000000000000000000000000000000000000000000000006001600160a01b03161561135f5761135c817f00000000000000000000000000000000000000000000000000000000000000006126bd565b90505b611368816125ef565b61137183612973565b61137b8483612ac3565b50505050565b600061139b8360c0015183611396919061410c565b612c20565b90506113a683612973565b80156113be576113be818560008660600151116122ed565b61137b846113cc838561410c565b612ac3565b505050565b60007fa23b11d346b90fc279e0a917152caf41f3c1247b12211b7cbc0e0e3f8b7940577f00000000000000000000000000000000000000000000000000000000000000006001600160a01b03166371907f176040518163ffffffff1660e01b8152600401602060405180830381865afa158015611457573d6000803e3d6000fd5b505050506040513d601f19601f8201168201806040525081019061147b9190613ec0565b6001600160a01b0316635ff57d2030833360016040518563ffffffff1660e01b81526004016114ad9493929190613edd565b60006040518083038186803b1580156114c557600080fd5b505afa1580156114d9573d6000803e3d6000fd5b5050506001600160a01b038416905061155a5760405162461bcd60e51b815260206004820152603760248201527f5072656d69756d734163636f756e743a2064657374696e6174696f6e2063616e60448201527f6e6f7420626520746865207a65726f206164647265737300000000000000000060648201526084016108c1565b600061012e541361156e576000935061157e565b61157b8461012e54612c79565b93505b600084116115ce5760405162461bcd60e51b815260206004820152601760248201527f4e6f207072656d69756d7320746f20776974686472617700000000000000000060448201526064016108c1565b8361012e60008282546115e1919061411f565b909155506115f190508385612ac3565b6040805160008152602081018690527fd60d524f1cae273480bb0a4ddfb992b6ac0b61c8e12ffbe2e4e31463f9e90199910160405180910390a18391505b5092915050565b61163e612102565b611646610a8d565b61164e610f60565b565b337f00000000000000000000000000000000000000000000000000000000000000006001600160a01b0316146116985760405162461bcd60e51b81526004016108c1906140cb565b6116a0612102565b60008160c0015190508061012d60008282546116bc919061410c565b90915550600090506116d46116cf610a71565b6122d3565b90508061012e54121561170c578061012e546116ef906140af565b6116f99190613f1d565b611703908361410c565b61012e82905591505b7f00000000000000000000000000000000000000000000000000000000000000006001600160a01b03161561176857611765827f00000000000000000000000000000000000000000000000000000000000000006126bd565b91505b7f00000000000000000000000000000000000000000000000000000000000000006001600160a01b0316156117c4576117c1827f00000000000000000000000000000000000000000000000000000000000000006126bd565b91505b6117cd826125ef565b6113d183612973565b6000805160206142d183398151915260008051602061428a8339815191527f00000000000000000000000000000000000000000000000000000000000000006001600160a01b03166371907f176040518163ffffffff1660e01b8152600401602060405180830381865afa158015611852573d6000803e3d6000fd5b505050506040513d601f19601f820116820180604052508101906118769190613ec0565b6001600160a01b0316632b1cff1f3084843360016040518663ffffffff1660e01b81526004016118aa959493929190613fdd565b60006040518083038186803b1580156118c257600080fd5b505afa1580156118d6573d6000803e3d6000fd5b505050506001600160a01b038416158061195a57506040516301ffc9a760e01b8152631e670a9760e21b60048201526001600160a01b038516906301ffc9a790602401602060405180830381865afa158015611936573d6000803e3d6000fd5b505050506040513d601f19601f8201168201806040525081019061195a919061413f565b6119ce576040805162461bcd60e51b81526020600482015260248101919091527f526573657276653a206173736574206d616e6167657220646f65736e2774206960448201527f6d706c656d656e74732074686520726571756972656420696e7465726661636560648201526084016108c1565b61012f546201000090046001600160a01b031660028115611afe578415611aa35760408051600481526024810182526020810180516001600160e01b031663cec16f3f60e01b179052905160009182916001600160a01b03861691611a329161415c565b600060405180830381855af49150503d8060008114611a6d576040519150601f19603f3d011682016040523d82523d6000602084013e611a72565b606091505b509150915081611a855760039250611a9c565b611a9c81806020019051810190610af8919061402f565b5050611afe565b6040805160048152602481019091526020810180516001600160e01b031663cec16f3f60e01b179052600090611ae3906001600160a01b03851690611e13565b9050611afc81806020019051810190610af8919061402f565b505b61012f805462010000600160b01b031916620100006001600160a01b0389160217905561012f546201000090046001600160a01b031691506001600160a01b03821615611b84576040805160048152602481019091526020810180516001600160e01b031663948cb71960e01b179052611b82906001600160a01b03841690611e13565b505b610e8a8187612c8f565b337f00000000000000000000000000000000000000000000000000000000000000006001600160a01b031614611bd65760405162461bcd60e51b81526004016108c1906140cb565b611bde612102565b8060c0015161012d6000828254611bf59190614178565b9091555050606081015115611c98577f00000000000000000000000000000000000000000000000000000000000000006001600160a01b031663837c83a38260600151611c4184612ce9565b6040516001600160e01b031960e085901b16815260048101929092526024820152604401600060405180830381600087803b158015611c7f57600080fd5b505af1158015611c93573d6000803e3d6000fd5b505050505b60808101511561095e577f00000000000000000000000000000000000000000000000000000000000000006001600160a01b031663837c83a38260800151611cdf84612d35565b6040516001600160e01b031960e085901b168152600481019290925260248201526044015b600060405180830381600087803b158015611d1e57600080fd5b505af1158015611d32573d6000803e3d6000fd5b5050505050565b60007f00000000000000000000000000000000000000000000000000000000000000006001600160a01b031663e5a6b10f6040518163ffffffff1660e01b8152600401602060405180830381865afa158015611d99573d6000803e3d6000fd5b505050506040513d601f19601f820116820180604052508101906108749190613ec0565b60008061012e541215611dd75761012e54610874906140af565b50600090565b60006001600160e01b031982166301ffc9a760e01b148061071f57506001600160e01b03198216634d15eb0360e01b1492915050565b606061085983836040518060600160405280602781526020016142aa60279139612d71565b6000805160206142d183398151915260008051602061428a8339815191527f00000000000000000000000000000000000000000000000000000000000000006001600160a01b03166371907f176040518163ffffffff1660e01b8152600401602060405180830381865afa158015611eb4573d6000803e3d6000fd5b505050506040513d601f19601f82011682018060405250810190611ed89190613ec0565b6001600160a01b0316632b1cff1f3084843360016040518663ffffffff1660e01b8152600401611f0c959493929190613fdd565b60006040518083038186803b158015611f2457600080fd5b505afa158015611f38573d6000803e3d6000fd5b505050506113d183612e0f565b7f4910fdfa16fed3260ed0e7147f7cc6da11a60208b5b9406d12a635614ffd91435460ff1615611f78576113d183613087565b826001600160a01b03166352d1902d6040518163ffffffff1660e01b8152600401602060405180830381865afa925050508015611fd2575060408051601f3d908101601f19168201909252611fcf9181019061402f565b60015b6120355760405162461bcd60e51b815260206004820152602e60248201527f45524331393637557067726164653a206e657720696d706c656d656e7461746960448201526d6f6e206973206e6f74205555505360901b60648201526084016108c1565b60008051602061426a83398151915281146120a45760405162461bcd60e51b815260206004820152602960248201527f45524331393637557067726164653a20756e737570706f727465642070726f786044820152681a58589b195555525160ba1b60648201526084016108c1565b506113d1838383613123565b6120b8613148565b6097805460ff191690557f5db9ee0a495bf2e6ff9c91a7834c1ba4fdd244a5e8aa4e537bd38aeae4b073aa335b6040516001600160a01b03909116815260200160405180910390a1565b60975460ff161561164e5760405162461bcd60e51b815260206004820152601060248201526f14185d5cd8589b194e881c185d5cd95960821b60448201526064016108c1565b600081131561221357807f00000000000000000000000000000000000000000000000000000000000000006001600160a01b0316156121ae576121ab817f00000000000000000000000000000000000000000000000000000000000000006126bd565b90505b7f00000000000000000000000000000000000000000000000000000000000000006001600160a01b03161561220a57612207817f00000000000000000000000000000000000000000000000000000000000000006126bd565b90505b610a6d816125ef565b61221f611396826140af565b1561095e5760405162461bcd60e51b815260206004820152601e60248201527f4c6f737365732063616e277420657863656564206d617844656669636974000060448201526064016108c1565b600061ffff8211156122cf5760405162461bcd60e51b815260206004820152602660248201527f53616665436173743a2076616c756520646f65736e27742066697420696e203160448201526536206269747360d01b60648201526084016108c1565b5090565b61012d546000906122e49083613191565b61071f906140af565b6001600160a01b0382166123605760405162461bcd60e51b815260206004820152603460248201527f5072656d69756d734163636f756e743a2072656365697665722063616e6e6f7460448201527320626520746865207a65726f206164647265737360601b60648201526084016108c1565b60008115612409576040516351dcfd3160e01b8152600481018590526001600160a01b038481166024830152600060448301527f000000000000000000000000000000000000000000000000000000000000000016906351dcfd31906064016020604051808303816000875af11580156123de573d6000803e3d6000fd5b505050506040513d601f19601f82011682018060405250810190612402919061402f565b905061240c565b50825b7f000000000000000000000000000000000000000000000000000000000000000081111561137b576040516351dcfd3160e01b8152600481018290526001600160a01b038481166024830152600160448301527f000000000000000000000000000000000000000000000000000000000000000016906351dcfd31906064016020604051808303816000875af11580156124aa573d6000803e3d6000fd5b505050506040513d601f19601f820116820180604052508101906124ce919061402f565b90507f000000000000000000000000000000000000000000000000000000000000000081111561137b5760405162461bcd60e51b815260206004820152602e60248201527f446f6e2774206b6e6f7720776865726520746f2074616b65207468652072657360448201526d74206f6620746865206d6f6e657960901b60648201526084016108c1565b61255f6131c9565b801561256e5761256e836131fe565b82602d8111156125805761258061418b565b6040518381527f7bc647fe5043209e2019aa3503b79c1b0dd83eb61c56013d373a7584ff6bfb139060200160405180910390a2505050565b600054610100900460ff166125df5760405162461bcd60e51b81526004016108c1906141a1565b6125e761336a565b61164e613399565b806000036125fa5750565b8061012e600082825461260d9190613f1d565b909155505050565b6040516001600160a01b038085166024830152831660448201526064810182905261137b9085906323b872dd60e01b906084015b60408051601f198184030181529190526020810180516001600160e01b03166001600160e01b0319909316929092179091526133f7565b612688612102565b6097805460ff191660011790557f62e78cea01bee320cd4e420270b5ea74000d11b0c9f74754ebdbfc544b05a2586120e53390565b60007f00000000000000000000000000000000000000000000000000000000000000008310156126ee57508161071f565b6040516333481fc960e01b81523060048201526000906001600160a01b038416906333481fc990602401602060405180830381865afa158015612735573d6000803e3d6000fd5b505050506040513d601f19601f82011682018060405250810190612759919061402f565b90508060000361276c578391505061071f565b60006127788583612c79565b905080612783611d39565b6040516370a0823160e01b81523060048201526001600160a01b0391909116906370a0823190602401602060405180830381865afa1580156127c9573d6000803e3d6000fd5b505050506040513d601f19601f820116820180604052508101906127ed919061402f565b10156127fe576127fc816134c9565b505b80612807611d39565b604051636eb1769f60e11b81523060048201526001600160a01b038781166024830152919091169063dd62ed3e90604401602060405180830381865afa158015612855573d6000803e3d6000fd5b505050506040513d601f19601f82011682018060405250810190612879919061402f565b10156128fe57612887611d39565b60405163095ea7b360e01b81526001600160a01b03868116600483015260248201859052919091169063095ea7b3906044016020604051808303816000875af11580156128d8573d6000803e3d6000fd5b505050506040513d601f19601f820116820180604052508101906128fc919061413f565b505b60405163918344d360e01b8152600481018290523060248201526001600160a01b0385169063918344d390604401600060405180830381600087803b15801561294657600080fd5b505af115801561295a573d6000803e3d6000fd5b50505050808561296a919061410c565b95945050505050565b606081015115612a32577f00000000000000000000000000000000000000000000000000000000000000006001600160a01b031663b1081ccf82606001516129ba84612ce9565b6129c3856135a6565b8561012001516129d3919061411f565b6040516001600160e01b031960e086901b168152600481019390935260248301919091526044820152606401600060405180830381600087803b158015612a1957600080fd5b505af1158015612a2d573d6000803e3d6000fd5b505050505b60808101511561095e577f00000000000000000000000000000000000000000000000000000000000000006001600160a01b031663b1081ccf8260800151612a7984612d35565b612a82856135f7565b856101400151612a92919061411f565b6040516001600160e01b031960e086901b168152600481019390935260248301919091526044820152606401611d04565b6001600160a01b038216612b275760405162461bcd60e51b815260206004820152602560248201527f526573657276653a207472616e7366657220746f20746865207a65726f206164604482015264647265737360d81b60648201526084016108c1565b80600003612b33575050565b6000612b3d611d39565b6040516370a0823160e01b81523060048201526001600160a01b0391909116906370a0823190602401602060405180830381865afa158015612b83573d6000803e3d6000fd5b505050506040513d601f19601f82011682018060405250810190612ba7919061402f565b905081811015612c0357612bba826134c9565b612bc49082614178565b905080821115612c03577f0000000000000000000000000000000000000000000000000000000000000000612bf9828461410c565b1015612c03578091505b6113d18383612c10611d39565b6001600160a01b0316919061363e565b6000808261012e54612c32919061411f565b90506000612c416116cf610a71565b9050808212612c57575061012e55506000919050565b61012e81905580612c67836140af565b612c719190613f1d565b949350505050565b6000818310612c885781610859565b5090919050565b612c976131c9565b81602d811115612ca957612ca961418b565b6040516001600160a01b03831681527fb6bdbd44472629fc24a00b6f4ee3348b72c9eff333d0e9c16d78c49da1323c8f9060200160405180910390a25050565b600061071f8260600151836101800151846101a00151612d0991906141ec565b64ffffffffff166301e13380856101200151612d259190614010565b612d2f919061408d565b9061366e565b600061071f8260800151836101800151846101a00151612d5591906141ec565b64ffffffffff166301e13380856101400151612d259190614010565b60606001600160a01b0384163b612d9a5760405162461bcd60e51b81526004016108c19061420a565b600080856001600160a01b031685604051612db5919061415c565b600060405180830381855af49150503d8060008114612df0576040519150601f19603f3d011682016040523d82523d6000602084013e612df5565b606091505b5091509150612e058282866136a5565b9695505050505050565b612e18816136de565b60008190507f00000000000000000000000000000000000000000000000000000000000000006001600160a01b0316816001600160a01b031663536ebbfc6040518163ffffffff1660e01b8152600401602060405180830381865afa158015612e85573d6000803e3d6000fd5b505050506040513d601f19601f82011682018060405250810190612ea99190613ec0565b6001600160a01b03161480612ee557507f00000000000000000000000000000000000000000000000000000000000000006001600160a01b0316155b612f525760405162461bcd60e51b815260206004820152603860248201527f43616e27742075706772616465206368616e67696e6720746865204a756e696f604482015277722045544b20756e6c65737320746f206e6f6e2d7a65726f60401b60648201526084016108c1565b7f00000000000000000000000000000000000000000000000000000000000000006001600160a01b0316816001600160a01b0316637b83037b6040518163ffffffff1660e01b8152600401602060405180830381865afa158015612fba573d6000803e3d6000fd5b505050506040513d601f19601f82011682018060405250810190612fde9190613ec0565b6001600160a01b0316148061301a57507f00000000000000000000000000000000000000000000000000000000000000006001600160a01b0316155b610a6d5760405162461bcd60e51b815260206004820152603860248201527f43616e27742075706772616465206368616e67696e67207468652053656e696f604482015277722045544b20756e6c65737320746f206e6f6e2d7a65726f60401b60648201526084016108c1565b6001600160a01b0381163b6130f45760405162461bcd60e51b815260206004820152602d60248201527f455243313936373a206e657720696d706c656d656e746174696f6e206973206e60448201526c1bdd08184818dbdb9d1c9858dd609a1b60648201526084016108c1565b60008051602061426a83398151915280546001600160a01b0319166001600160a01b0392909216919091179055565b61312c836137cf565b6000825111806131395750805b156113d15761137b838361380f565b60975460ff1661164e5760405162461bcd60e51b815260206004820152601460248201527314185d5cd8589b194e881b9bdd081c185d5cd95960621b60448201526064016108c1565b600081156706f05b59d3b2000019839004841115176131af57600080fd5b50670de0b6b3a764000091026706f05b59d3b20000010490565b61012f5461271061ffff909116118015906131e2575060015b61164e5760405162461bcd60e51b81526004016108c190614048565b6000600182602d8111156132145761321461418b565b61321e9190614250565b60c954600160ff929092169190911b915062015180906132459064ffffffffff16426141ec565b64ffffffffff1611156132875760c9805466ffffffffffffff8316600160281b026bffffffffffffffffffffffff1990911664ffffffffff4216171790555050565b60c954600160281b9004811666ffffffffffffff166000036132ec5760c9805464ffffffffff421664ffffffffff1966ffffffffffffff808616600160281b808604929092161702166bffffffffffffffffffffffff19909216919091171790555050565b60405162461bcd60e51b815260206004820152604760248201527f596f7520616c726561647920747765616b6564207468697320706172616d657460448201527f657220726563656e746c792e2057616974206265666f726520747765616b696e606482015266339030b3b0b4b760c91b608482015260a4016108c1565b600054610100900460ff166133915760405162461bcd60e51b81526004016108c1906141a1565b61164e6138bb565b600054610100900460ff166133c05760405162461bcd60e51b81526004016108c1906141a1565b60408051808201909152612710808252600060209092019190915261012f80546001600160b01b031916909117905561164e6131c9565b600061344c826040518060400160405280602081526020017f5361666545524332303a206c6f772d6c6576656c2063616c6c206661696c6564815250856001600160a01b03166138f29092919063ffffffff16565b8051909150156113d1578080602001905181019061346a919061413f565b6113d15760405162461bcd60e51b815260206004820152602a60248201527f5361666545524332303a204552433230206f7065726174696f6e20646964206e6044820152691bdd081cdd58d8d9595960b21b60648201526084016108c1565b6000806134e661012f546001600160a01b03620100009091041690565b90506001600160a01b0381161561359d576000613587631014a0c260e01b8560405160240161351791815260200190565b60408051601f19818403018152918152602080830180516001600160e01b03166001600160e01b03199095169490941790935280518082019091526016815275115c9c9bdc881c99599a5b1b1a5b99c81dd85b1b195d60521b928101929092526001600160a01b03851691612d71565b905080806020019051810190612c71919061402f565b50600092915050565b6000816101800151826101a001516135be91906141ec565b64ffffffffff1682610180015164ffffffffff16426135dd919061410c565b8361012001516135ed9190614010565b61071f919061408d565b6000816101800151826101a0015161360f91906141ec565b64ffffffffff1682610180015164ffffffffff164261362e919061410c565b8361014001516135ed9190614010565b6040516001600160a01b0383166024820152604481018290526113d190849063a9059cbb60e01b90606401612649565b60008115670de0b6b3a76400006002840419048411171561368e57600080fd5b50670de0b6b3a76400009190910260028204010490565b606083156136b4575081610859565b8251156136c45782518084602001fd5b8160405162461bcd60e51b81526004016108c19190613c37565b7f00000000000000000000000000000000000000000000000000000000000000006001600160a01b0316816001600160a01b0316634d15eb036040518163ffffffff1660e01b8152600401602060405180830381865afa158015613746573d6000803e3d6000fd5b505050506040513d601f19601f8201168201806040525081019061376a9190613ec0565b6001600160a01b03161461095e5760405162461bcd60e51b815260206004820152602660248201527f43616e27742075706772616465206368616e67696e672074686520506f6c696360448201526579506f6f6c2160d01b60648201526084016108c1565b6137d881613087565b6040516001600160a01b038216907fbc7cd75a20ee27fd9adebab32041f755214dbc6bffa90cc0225b39da2e5c2d3b90600090a250565b60606001600160a01b0383163b6138385760405162461bcd60e51b81526004016108c19061420a565b600080846001600160a01b031684604051613853919061415c565b600060405180830381855af49150503d806000811461388e576040519150601f19603f3d011682016040523d82523d6000602084013e613893565b606091505b509150915061296a82826040518060600160405280602781526020016142aa602791396136a5565b600054610100900460ff166138e25760405162461bcd60e51b81526004016108c1906141a1565b6138ea613901565b61164e613928565b6060612c718484600085613957565b600054610100900460ff1661164e5760405162461bcd60e51b81526004016108c1906141a1565b600054610100900460ff1661394f5760405162461bcd60e51b81526004016108c1906141a1565b61164e613a88565b6060824710156139b85760405162461bcd60e51b815260206004820152602660248201527f416464726573733a20696e73756666696369656e742062616c616e636520666f6044820152651c8818d85b1b60d21b60648201526084016108c1565b6001600160a01b0385163b613a0f5760405162461bcd60e51b815260206004820152601d60248201527f416464726573733a2063616c6c20746f206e6f6e2d636f6e747261637400000060448201526064016108c1565b600080866001600160a01b03168587604051613a2b919061415c565b60006040518083038185875af1925050503d8060008114613a68576040519150601f19603f3d011682016040523d82523d6000602084013e613a6d565b606091505b5091509150613a7d8282866136a5565b979650505050505050565b600054610100900460ff16613aaf5760405162461bcd60e51b81526004016108c1906141a1565b6097805460ff19169055565b600060208284031215613acd57600080fd5b81356001600160e01b03198116811461085957600080fd5b634e487b7160e01b600052604160045260246000fd5b6040516101c0810167ffffffffffffffff81118282101715613b1f57613b1f613ae5565b60405290565b600082601f830112613b3657600080fd5b813567ffffffffffffffff80821115613b5157613b51613ae5565b604051601f8301601f19908116603f01168101908282118183101715613b7957613b79613ae5565b81604052838152866020858801011115613b9257600080fd5b836020870160208301376000602085830101528094505050505092915050565b600060208284031215613bc457600080fd5b813567ffffffffffffffff811115613bdb57600080fd5b612c7184828501613b25565b60005b83811015613c02578181015183820152602001613bea565b50506000910152565b60008151808452613c23816020860160208601613be7565b601f01601f19169290920160200192915050565b6020815260006108596020830184613c0b565b6001600160a01b038116811461095e57600080fd5b600060208284031215613c7157600080fd5b813561085981613c4a565b60008060408385031215613c8f57600080fd5b8235613c9a81613c4a565b9150602083013567ffffffffffffffff811115613cb657600080fd5b613cc285828601613b25565b9150509250929050565b801515811461095e57600080fd5b60008060408385031215613ced57600080fd5b823591506020830135613cff81613ccc565b809150509250929050565b600060208284031215613d1c57600080fd5b5035919050565b8035613d2e81613c4a565b919050565b803564ffffffffff81168114613d2e57600080fd5b60006101c08284031215613d5b57600080fd5b613d63613afb565b9050813581526020820135602082015260408201356040820152606082013560608201526080820135608082015260a082013560a082015260c082013560c082015260e082013560e0820152610100808301358183015250610120808301358183015250610140808301358183015250610160613de1818401613d23565b90820152610180613df3838201613d33565b908201526101a0613e05838201613d33565b9082015292915050565b60008060006102008486031215613e2557600080fd5b8335613e3081613c4a565b9250613e3f8560208601613d48565b91506101e084013590509250925092565b60008060408385031215613e6357600080fd5b823591506020830135613cff81613c4a565b60006101c08284031215613e8857600080fd5b6108598383613d48565b60008060408385031215613ea557600080fd5b8235613eb081613c4a565b91506020830135613cff81613ccc565b600060208284031215613ed257600080fd5b815161085981613c4a565b6001600160a01b039485168152602081019390935292166040820152901515606082015260800190565b634e487b7160e01b600052601160045260246000fd5b8082018281126000831280158216821582161715613f3d57613f3d613f07565b505092915050565b6020808252602c908201527f46756e6374696f6e206d7573742062652063616c6c6564207468726f7567682060408201526b19195b1959d85d1958d85b1b60a21b606082015260800190565b6020808252602c908201527f46756e6374696f6e206d7573742062652063616c6c6564207468726f7567682060408201526b6163746976652070726f787960a01b606082015260800190565b6001600160a01b039586168152602081019490945260408401929092529092166060820152901515608082015260a00190565b600081600019048311821515161561402a5761402a613f07565b500290565b60006020828403121561404157600080fd5b5051919050565b60208082526025908201527f56616c69646174696f6e3a2064656669636974526174696f206d757374206265604082015264203c3d203160d81b606082015260800190565b6000826140aa57634e487b7160e01b600052601260045260246000fd5b500490565b6000600160ff1b82016140c4576140c4613f07565b5060000390565b60208082526021908201527f5468652063616c6c6572206d7573742062652074686520506f6c696379506f6f6040820152601b60fa1b606082015260800190565b8181038181111561071f5761071f613f07565b818103600083128015838313168383128216171561162f5761162f613f07565b60006020828403121561415157600080fd5b815161085981613ccc565b6000825161416e818460208701613be7565b9190910192915050565b8082018082111561071f5761071f613f07565b634e487b7160e01b600052602160045260246000fd5b6020808252602b908201527f496e697469616c697a61626c653a20636f6e7472616374206973206e6f74206960408201526a6e697469616c697a696e6760a81b606082015260800190565b64ffffffffff82811682821603908082111561162f5761162f613f07565b60208082526026908201527f416464726573733a2064656c65676174652063616c6c20746f206e6f6e2d636f6040820152651b9d1c9858dd60d21b606082015260800190565b60ff828116828216039081111561071f5761071f613f0756fe360894a13ba1a3210667c828492db98dca3e2076cc3735a920a3ca505d382bbcbf372ca3ebecfe59ac256f17697941bbe63302aced610e8b0e3646f743c7beb2416464726573733a206c6f772d6c6576656c2064656c65676174652063616c6c206661696c656455435dd261a4b9b3364963f7738a7a662ad9c84396d64be3365284bb7f0a5041a2646970667358221220152dcf9439fbcf196dcd4d08f10d310488b00deb1f2e06022d12cd664c24a74564736f6c63430008100033",
  "linkReferences": {},
  "deployedLinkReferences": {}
}